:020000040000FA
:0400000007EF00F016
:100008002282B1ED02F096EF02F0DAEC02F0C7ECD2
:1000180002F0E4EC02F0DFEC02F0000E1B6E54EF8D
:1000280001F0000E086E000E076E000E0A6E000E3C
:10003800096E0EBE28EF00F00E5008E10D04D8A09E
:1000480028EF00F02AEF00F032EF00F001C08CFF3B
:10005800014A022A010E1B6E54EF01F00D500E10DA
:10006800D8A439EF00F03BEF00F054EF01F00CBEDC
:1000780046EF00F00C5008E10B04D8A046EF00F062
:1000880048EF00F054EF01F001C08CFF0106D8A042
:100098000206040E1B6E54EF01F00D500E10D8A48A
:1000A80058EF00F05AEF00F05CEF00F0000E1B6E06
:1000B8000ABE67EF00F00A5008E10904D8A067EF0C
:1000C80000F069EF00F054EF01F0000E066E010E2B
:1000D800056E030E1B6E54EF01F00D500E10D8A4E0
:1000E80078EF00F07AEF00F07CEF00F0000E1B6E66
:1000F80005040610D8A483EF00F085EF00F08DEF1B
:1001080000F001C08CFF014A022A000E066E000EA4
:10011800056E08BE98EF00F0085008E10704D8A063
:1001280098EF00F09AEF00F054EF01F0000E046E23
:10013800010E036E020E1B6E54EF01F00D500E10EF
:10014800D8A4A9EF00F0ABEF00F0ADEF00F0000E7F
:100158001B6E03040410D8A4B4EF00F0B6EF00F04F
:1001680054EF01F001C08CFF014A022A000E046E10
:10017800000E036E54EF01F00B500C10D8B4C7EF0B
:1001880000F0C9EF00F0D6EF00F00EBED4EF00F09B
:100198000E5008E10D04D8A0D4EF00F0D6EF00F01F
:1001A800D8EF00F0000E1B6E0ABEE3EF00F00A5015
:1001B80008E10904D8A0E3EF00F0E5EF00F054EF00
:1001C80001F0000E066E010E056E060E1B6E54EF52
:1001D80001F00B500C10D8B4F4EF00F0F6EF00F07B
:1001E80003EF01F00EBE01EF01F00E5008E10D041F
:1001F800D8A001EF01F003EF01F005EF01F0000EC8
:100208001B6E05040610D8A40CEF01F00EEF01F0E8
:1002180017EF01F001C08CFF0106D8A00206000EFE
:10022800066E000E056E08BE22EF01F0085008E1C8
:100238000704D8A022EF01F024EF01F054EF01F0F9
:10024800000E046E010E036E050E1B6E54EF01F0D6
:100258000B500C10D8B433EF01F035EF01F042EF3A
:1002680001F00EBE40EF01F00E5008E10D04D8A0D9
:1002780040EF01F042EF01F044EF01F0000E1B6E79
:1002880003040410D8A44BEF01F04DEF01F054EF34
:1002980001F001C08CFF0106D8A00206BAEF00F0F9
:1002A8001B50196E1A6A1A50000AD8B45EEF01F092
:1002B80054EF01F01950000AD8B415EF00F0010A04
:1002C800D8B451EF00F0030AD8B4A2EF00F0010A45
:1002D800D8B471EF00F0070AD8B4C0EF00F0010AF3
:1002E800D8B42CEF01F0030AD8B4EDEF00F054EFC6
:1002F80001F007EF00F04EEC02F00FC013F010C051
:1003080014F072EC02F00FC015F010C016F01304D0
:100318001410D8A492EF01F094EF01F0E4EF01F08B
:100328000D4A0E2A0EBEA2EF01F00E5009E1650E2D
:100338000D5CD8A0A2EF01F0A4EF01F0BCEF01F032
:10034800094A0A2A0ABEB2EF01F00A5009E1330E3F
:10035800095CD8A0B2EF01F0B4EF01F0BCEF01F0F6
:10036800000E066E010E056E000E0A6E000E096E76
:100378000EBEC8EF01F02D0E0D5C010E0E58D8A070
:10038800C8EF01F0CAEF01F04DEF02F0074A082A62
:1003980008BED8EF01F0085009E10B0E075CD8A0A1
:1003A800D8EF01F0DAEF01F04DEF02F0000E046E25
:1003B800010E036E000E086E000E076E4DEF02F080
:1003C80015041610D8A4EBEF01F0EDEF01F035EFAE
:1003D80002F00B4A0C2A0CBEFBEF01F00C5009E1AD
:1003E800650E0B5CD8A0FBEF01F0FDEF01F015EFF7
:1003F80002F0094A0A2A0ABE0BEF02F00A5009E184
:10040800330E095CD8A00BEF02F00DEF02F015EFE8
:1004180002F0000E066E010E056E000E0A6E000E4A
:10042800096E0CBE21EF02F02D0E0B5C010E0C586C
:10043800D8A021EF02F023EF02F04DEF02F0074AB7
:10044800082A08BE31EF02F0085009E10B0E075CDC
:10045800D8A031EF02F033EF02F04DEF02F0DAEFFF
:1004680001F0000E0E6E000E0D6E000E0C6E000EEA
:100478000B6E000E086E000E076E000E046E000E66
:10048800036E000E0A6E000E096E000E066E000E58
:10049800056E12001EC01FF0000E80BA010E1E6EFF
:1004A800000E126E000E116E1E501F18D8A45FEFBA
:1004B80002F061EF02F06DEF02F01F50D8A467EF71
:1004C80002F069EF02F06DEF02F0000E126E010EFD
:1004D800116E11C00FF012C010F012001CC01DF0F8
:1004E800000E81B0010E1C6E000E126E000E116E11
:1004F8001C501D18D8A483EF02F085EF02F091EF8D
:1005080002F01D50D8A48BEF02F08DEF02F091EFAE
:1005180002F0000E126E010E116E11C00FF012C023
:1005280010F01200D20EF66E050EF76E000EF86E81
:1005380000EE1CF010EE04F00900F5CFEEFFE550D8
:10054800E150FAE100EE01F00E0EEE6AE806FDE178
:1005580022902292000109EF00F00600F2A4B7EF02
:1005680002F0B9EF02F0C5EF02F0F2AABEEF02F016
:10057800C0EF02F0C5EF02F0F29420C0D6FF7FEC86
:1005880001F022921100F28EF28AF294C60ED56E14
:10059800D5EC02F017C020F018C021F020C0D6FF1B
:1005A8001200000E186E640E176E1200770ED36ECE
:1005B8000F0E9B6E1200000E956E000E8C6E1200D0
:0E05C800928A93800F0EC16E12000101010194
:020000040020DA
:08000000FFFFFFFFFFFFFFFF00
:020000040030CA
:0E000000FF06191EF38381FFFFC0FFE0FF40E3
:00000001FF
