:020000040000FA
:0400000007EF00F016
:100008001C82B8ED02F09DEF02F0D7EC02F0C9ECCB
:1000180002F0E1EC02F0DCEC02F0000E176E3FEFAC
:1000280001F0000E066E000E056E000E086E000E42
:10003800076E0CBE28EF00F00C5008E10B04D8A0A6
:1000480028EF00F02AEF00F02FEF00F08C2A010EC5
:10005800176E3FEF01F00B500C10D8A436EF00F0EC
:1000680038EF00F03FEF01F00ABE43EF00F00A500E
:1000780008E10904D8A043EF00F045EF00F03FEF96
:1000880001F08C06040E176E3FEF01F00B500C10B8
:10009800D8A451EF00F053EF00F055EF00F0000E38
:1000A800176E08BE60EF00F0085008E10704D8A0FA
:1000B80060EF00F062EF00F03FEF01F0000E046E19
:1000C800010E036E030E176E3FEF01F00B500C107C
:1000D800D8A471EF00F073EF00F075EF00F0000E98
:1000E800176E03040410D8A47CEF00F07EEF00F034
:1000F80083EF00F08C2A000E046E000E036E06BE1D
:100108008EEF00F0065008E10504D8A08EEF00F04D
:1001180090EF00F03FEF01F0000E026E010E016E4D
:10012800020E176E3FEF01F00B500C10D8A49FEF92
:1001380000F0A1EF00F0A3EF00F0000E176E01042D
:100148000210D8A4AAEF00F0ACEF00F03FEF01F0E6
:100158008C2A000E026E000E016E3FEF01F009506E
:100168000A10D8B4BAEF00F0BCEF00F0C9EF00F005
:100178000CBEC7EF00F00C5008E10B04D8A0C7EF85
:1001880000F0C9EF00F0CBEF00F0000E176E08BECC
:10019800D6EF00F0085008E10704D8A0D6EF00F029
:1001A800D8EF00F03FEF01F0000E046E010E036E71
:1001B800060E176E3FEF01F009500A10D8B4E7EFAA
:1001C80000F0E9EF00F0F6EF00F00CBEF4EF00F0FD
:1001D8000C5008E10B04D8A0F4EF00F0F6EF00F0A3
:1001E800F8EF00F0000E176E03040410D8A4FFEF18
:1001F80000F001EF01F006EF01F08C06000E046E2E
:10020800000E036E06BE11EF01F0065008E105046A
:10021800D8A011EF01F013EF01F03FEF01F0000E4D
:10022800026E010E016E050E176E3FEF01F00950C8
:100238000A10D8B422EF01F024EF01F031EF01F0F9
:100248000CBE2FEF01F00C5008E10B04D8A02FEFE3
:1002580001F031EF01F033EF01F0000E176E0104E9
:100268000210D8A43AEF01F03CEF01F03FEF01F0A3
:100278008C06ADEF00F01750156E166A1650000A7E
:10028800D8B449EF01F03FEF01F01550000AD8B497
:1002980015EF00F0010AD8B44AEF00F0030AD8B409
:1002A80098EF00F0010AD8B46AEF00F0070AD8B452
:1002B800B3EF00F0010AD8B41BEF01F0030AD8B479
:1002C800E0EF00F03FEF01F007EF00F04DEC02F037
:1002D8000DC00FF00EC010F075EC02F00DC011F05B
:1002E8000EC012F00F041010D8A47DEF01F07FEFBC
:1002F80001F0CFEF01F00B4A0C2A0CBE8DEF01F094
:100308000C5009E1650E0B5CD8A08DEF01F08FEF62
:1003180001F0A7EF01F0074A082A08BE9DEF01F097
:10032800085009E1330E075CD8A09DEF01F09FEF5C
:1003380001F0A7EF01F0000E046E010E036E000E2F
:10034800086E000E076E0CBEB3EF01F02D0E0B5CAD
:10035800010E0C58D8A0B3EF01F0B5EF01F04CEF47
:1003680002F0054A062A06BEC3EF01F0065009E16D
:100378000B0E055CD8A0C3EF01F0C5EF01F04CEF00
:1003880002F0000E026E010E016E000E066E000EE7
:10039800056E4CEF02F011041210D8A4D6EF01F04C
:1003A800D8EF01F020EF02F0094A0A2A0ABEE6EF68
:1003B80001F00A5009E1650E095CD8A0E6EF01F0EA
:1003C800E8EF01F000EF02F0074A082A08BEF6EF4E
:1003D80001F0085009E1330E075CD8A0F6EF01F0F0
:1003E800F8EF01F000EF02F0000E046E010E036E4C
:1003F800000E086E000E076E0ABE0CEF02F02D0EFE
:10040800095C010E0A58D8A00CEF02F00EEF02F0BA
:100418004CEF02F0054A062A06BE1CEF02F0065011
:1004280009E10B0E055CD8A01CEF02F01EEF02F0EC
:100438004CEF02F0C5EF01F0020E0F181010D8B4FF
:1004480028EF02F02AEF02F034EF02F0020E111842
:100458001210D8A432EF02F034EF02F04CEF02F0A1
:10046800000E0C6E000E0B6E000E0A6E000E096E6A
:10047800000E066E000E056E000E026E000E016E76
:10048800000E086E000E076E000E046E000E036E5E
:1004980012001AC01BF0000E80BA010E1A6E1A5014
:1004A8001B18D8A45AEF02F05CEF02F070EF02F0CC
:1004B8001B50D8A462EF02F064EF02F06AEF02F07A
:1004C800000E0E6E010E0D6E74EF02F0000E0E6E31
:1004D800020E0D6E74EF02F0000E0E6E000E0D6E21
:1004E800120018C019F0000E81B0010E186E1850D5
:1004F8001918D8A482EF02F084EF02F098EF02F006
:100508001950D8A48AEF02F08CEF02F092EF02F0B3
:10051800000E0E6E010E0D6E9CEF02F0000E0E6EB8
:10052800020E0D6E9CEF02F0000E0E6E000E0D6EA8
:100538001200D60EF66E050EF76E000EF86E00EE7F
:1005480018F010EE04F00900F5CFEEFFE550E15089
:10055800FAE100EE01F00C0EEE6AE806FDE11C90EF
:100568001C92000109EF00F00600F2A4BEEF02F0B1
:10057800C0EF02F0C7EF02F0F294E6EC02F00D5083
:10058800D66E6AEC01F01C921100F28AF28EC60E49
:10059800D56ED2EC02F01350D66E1200000E146E17
:1005A800640E136E1200770ED36E0F0E9B6E120040
:1005B800000E956E000E8C6E1200928A93800F0EBC
:1005C800C16E1200000E0E6E640E0D6E1200010157
:0205D80001011F
:020000040020DA
:08000000FFFFFFFFFFFFFFFF00
:020000040030CA
:0E000000FF06191EF38381FFFFC0FFE0FF40E3
:00000001FF
