:020000040000FA
:0400000007EF00F016
:0A0008003A8250ED10F008EF11F0FD
:101000000020202053544F50205741544348202063
:10101000200020204E4F524D414C20434C4F434B1B
:10102000202000204D4F44494649455320484F5504
:101030005220004D4F444946494553205345434FA4
:101040004E44004D4F444946494553204D494E5565
:101050005445000050EC11F03DEC11F055EC11F04E
:1010600079EC10F0000E206E000E1F6ED3EF08F02A
:10107000000E0C6E000E0B6E000E0E6E000E0D6E4E
:10108000000E106E000E0F6E73EC0FF0F1EC0DF011
:1010900019041A10D8A44FEF08F051EF08F0D3EF5D
:1010A00008F0000E1A6E000E196E010E206E000E72
:1010B000046E000E036E000E166E000E156ED3EF5A
:1010C00008F072EC0CF080EC0AF019041A10D8A4A5
:1010D0006CEF08F06EEF08F0D3EF08F0000E1A6E18
:1010E000000E196E020E206E000E046E000E036ECE
:1010F000000E166E000E156ED3EF08F0DAEC0BF052
:10110000BBEC09F019041A10D8A489EF08F08BEF92
:1011100008F0D3EF08F0000E1A6E000E196E030EE1
:10112000206E000E046E000E036E000E166E000E92
:10113000156ED3EF08F042EC0BF0F6EC08F0190452
:101140001A10D8A4A6EF08F0A8EF08F0D3EF08F023
:10115000000E1A6E000E196E040E206E000E126E36
:10116000000E116E000E166E000E156ED3EF08F015
:1011700073EC0FF00AEC0DF07EEC0DF019041A1070
:10118000D8A4C5EF08F0C7EF08F0D3EF08F0000EC1
:101190001A6E000E196E000E206E000E126E000EFA
:1011A000116ED3EF08F02050346E356A3550000AC6
:1011B000D8B4DDEF08F0D3EF08F03450000AD8B40B
:1011C00038EF08F0010AD8B461EF08F0030AD8B488
:1011D0007EEF08F0010AD8B49BEF08F0070AD8B4F4
:1011E000B8EF08F0D3EF08F007EF00F0800E25EC21
:1011F00010F0330E306E100E316EE9EC10F0C00EB0
:1012000025EC10F005C029F006C02AF0000E2C6E67
:101210000A0E2B6E58EC0EF02950300FFAEC0FF03E
:1012200005C029F006C02AF0000E2C6E0A0E2B6EA7
:101230001BEC0FF02950300FFAEC0FF03A0EFAECDD
:101240000FF0C30E25EC10F007C029F008C02AF0FB
:10125000000E2C6E0A0E2B6E58EC0EF02950300F3B
:10126000FAEC0FF007C029F008C02AF0000E2C6E2F
:101270000A0E2B6E1BEC0FF02950300FFAEC0FF01A
:101280003A0EFAEC0FF0C60E25EC10F016BE52EF37
:1012900009F0165009E10A0E155CD8A052EF09F0CA
:1012A00054EF09F0BAEF09F0000E166E000E156E3D
:1012B0001CBE65EF09F01C5006E11B04D8B063EFBB
:1012C00009F065EF09F09EEF09F003500410D8A46F
:1012D0006CEF09F06EEF09F076EF09F0200EFAECF2
:1012E0000FF0200EFAEC0FF092EF09F009C029F090
:1012F0000AC02AF0000E2C6E0A0E2B6E58EC0EF06F
:101300002950300FFAEC0FF009C029F00AC02AF07A
:10131000000E2C6E0A0E2B6E1BEC0FF02950300FB6
:10132000FAEC0FF0010E0324326E000E0420336E2F
:10133000010E3214036E046ABAEF09F009C029F0F5
:101340000AC02AF0000E2C6E0A0E2B6E58EC0EF01E
:101350002950300FFAEC0FF009C029F00AC02AF02A
:10136000000E2C6E0A0E2B6E1BEC0FF02950300F66
:10137000FAEC0FF01200800E25EC10F0430E306EE8
:10138000100E316EE9EC10F0C00E25EC10F005C027
:1013900029F006C02AF0000E2C6E0A0E2B6E58ECB7
:1013A0000EF02950300FFAEC0FF005C029F006C0FE
:1013B0002AF0000E2C6E0A0E2B6E1BEC0FF029503B
:1013C000300FFAEC0FF03A0EFAEC0FF0C30E25ECEA
:1013D00010F016BEF5EF09F0165009E10A0E155C83
:1013E000D8A0F5EF09F0F7EF09F05DEF0AF0000E75
:1013F000166E000E156E1CBE08EF0AF01C5006E1BA
:101400001B04D8B006EF0AF008EF0AF041EF0AF02B
:1014100003500410D8A40FEF0AF011EF0AF019EFEF
:101420000AF0200EFAEC0FF0200EFAEC0FF035EF78
:101430000AF007C029F008C02AF0000E2C6E0A0E30
:101440002B6E58EC0EF02950300FFAEC0FF007C05D
:1014500029F008C02AF0000E2C6E0A0E2B6E1BEC31
:101460000FF02950300FFAEC0FF0010E0324326E0A
:10147000000E0420336E010E3214036E046A5DEF19
:101480000AF007C029F008C02AF0000E2C6E0A0EE0
:101490002B6E58EC0EF02950300FFAEC0FF007C00D
:1014A00029F008C02AF0000E2C6E0A0E2B6E1BECE1
:1014B0000FF02950300FFAEC0FF0C50E25EC10F0AC
:1014C0003A0EFAEC0FF009C029F00AC02AF0000E1B
:1014D0002C6E0A0E2B6E58EC0EF02950300FFAECE1
:1014E0000FF009C029F00AC02AF0000E2C6E0A0E77
:1014F0002B6E1BEC0FF02950300FFAEC0FF012009E
:10150000800E25EC10F0230E306E100E316EE9ECDB
:1015100010F0C00E25EC10F016BE98EF0AF0165031
:1015200009E10A0E155CD8A098EF0AF09AEF0AF0CC
:1015300000EF0BF0000E166E000E156E1CBEABEF2A
:101540000AF01C5006E11B04D8B0A9EF0AF0ABEF7B
:101550000AF0E4EF0AF003500410D8A4B2EF0AF046
:10156000B4EF0AF0BCEF0AF0200EFAEC0FF0200EF8
:10157000FAEC0FF0D8EF0AF005C029F006C02AF007
:10158000000E2C6E0A0E2B6E58EC0EF02950300F08
:10159000FAEC0FF005C029F006C02AF0000E2C6E00
:1015A0000A0E2B6E1BEC0FF02950300FFAEC0FF0E7
:1015B000010E0324326E000E0420336E010E32142D
:1015C000036E046A00EF0BF005C029F006C02AF094
:1015D000000E2C6E0A0E2B6E58EC0EF02950300FB8
:1015E000FAEC0FF005C029F006C02AF0000E2C6EB0
:1015F0000A0E2B6E1BEC0FF02950300FFAEC0FF097
:10160000C20E25EC10F03A0EFAEC0FF007C029F0EC
:1016100008C02AF0000E2C6E0A0E2B6E58EC0EF04D
:101620002950300FFAEC0FF007C029F008C02AF05B
:10163000000E2C6E0A0E2B6E1BEC0FF02950300F93
:10164000FAEC0FF03A0EFAEC0FF009C029F00AC0DC
:101650002AF0000E2C6E0A0E2B6E58EC0EF029505C
:10166000300FFAEC0FF009C029F00AC02AF0000E82
:101670002C6E0A0E2B6E1BEC0FF02950300FFAEC7B
:101680000FF01200AEEF0BF019501A10D8A44BEF68
:101690000BF04DEF0BF0C7EF0BF01EBE58EF0BF049
:1016A0001E5008E11D04D8A058EF0BF05AEF0BF0C4
:1016B000C7EF0BF0094A0A2A010E1F6EC7EF0BF0A5
:1016C0001D501E10D8B467EF0BF069EF0BF072EFEE
:1016D0000BF019041A10D8A470EF0BF072EF0BF096
:1016E00074EF0BF0000E1F6E1CBE7FEF0BF01C5052
:1016F00008E11B04D8A07FEF0BF081EF0BF0C7EFE0
:101700000BF0000E186E010E176E020E1F6EC7EF63
:101710000BF01D501E10D8B490EF0BF092EF0BF0B1
:101720009BEF0BF019041A10D8A499EF0BF09BEF64
:101730000BF09DEF0BF0000E1F6E17041810D8A4CD
:10174000A4EF0BF0A6EF0BF0C7EF0BF0000E186E36
:10175000000E176E094A0A2AC7EF0BF01F50296EB8
:101760002A6A2A50000AD8B4B8EF0BF0C7EF0BF082
:101770002950000AD8B444EF0BF0010AD8B460EF46
:101780000BF0030AD8B489EF0BF0C7EF0BF00ABED9
:10179000D3EF0BF00A5009E13C0E095CD8A0D3EF5F
:1017A0000BF0D5EF0BF0D9EF0BF0000E0A6E000E28
:1017B000096E120046EF0CF019501A10D8A4E3EF8E
:1017C0000BF0E5EF0BF05FEF0CF01EBEF0EF0BF04F
:1017D0001E5008E11D04D8A0F0EF0BF0F2EF0BF063
:1017E0005FEF0CF0074A082A010E1F6E5FEF0CF046
:1017F0001D501E10D8B4FFEF0BF001EF0CF00AEFF4
:101800000CF019041A10D8A408EF0CF00AEF0CF031
:101810000CEF0CF0000E1F6E1CBE17EF0CF01C50EE
:1018200008E11B04D8A017EF0CF019EF0CF05FEFE4
:101830000CF0000E186E010E176E020E1F6E5FEF99
:101840000CF01D501E10D8B428EF0CF02AEF0CF04D
:1018500033EF0CF019041A10D8A431EF0CF033EF69
:101860000CF035EF0CF0000E1F6E17041810D8A402
:101870003CEF0CF03EEF0CF05FEF0CF0000E186E3A
:10188000000E176E074A082A5FEF0CF01F50296EF2
:101890002A6A2A50000AD8B450EF0CF05FEF0CF01F
:1018A0002950000AD8B4DCEF0BF0010AD8B4F8EFE5
:1018B0000BF0030AD8B421EF0CF05FEF0CF008BE78
:1018C0006BEF0CF0085009E13C0E075CD8A06BEF01
:1018D0000CF06DEF0CF071EF0CF0000E086E000EC6
:1018E000076E1200DEEF0CF019501A10D8A47BEF2F
:1018F0000CF07DEF0CF0F7EF0CF01EBE88EF0CF053
:101900001E5008E11D04D8A088EF0CF08AEF0CF0FF
:10191000F7EF0CF0054A062A010E1F6EF7EF0CF0E8
:101920001D501E10D8B497EF0CF099EF0CF0A2EFF9
:101930000CF019041A10D8A4A0EF0CF0A2EF0CF0D0
:10194000A4EF0CF0000E1F6E1CBEAFEF0CF01C508D
:1019500008E11B04D8A0AFEF0CF0B1EF0CF0F7EFEB
:101960000CF0000E186E010E176E020E1F6EF7EFD0
:101970000CF01D501E10D8B4C0EF0CF0C2EF0CF0EC
:10198000CBEF0CF019041A10D8A4C9EF0CF0CBEF70
:101990000CF0CDEF0CF0000E1F6E17041810D8A439
:1019A000D4EF0CF0D6EF0CF0F7EF0CF0000E186E41
:1019B000000E176E054A062AF7EF0CF01F50296E2D
:1019C0002A6A2A50000AD8B4E8EF0CF0F7EF0CF0BE
:1019D0002950000AD8B474EF0CF0010AD8B490EF83
:1019E0000CF0030AD8B4B9EF0CF0F7EF0CF006BE18
:1019F00003EF0DF0065009E1180E055CD8A003EFC7
:101A00000DF005EF0DF009EF0DF0000E066E000E63
:101A1000056E12001EBE15EF0DF01E5008E11D04EC
:101A2000D8A015EF0DF017EF0DF03AEF0DF01150B3
:101A30001210D8A41EEF0DF020EF0DF02CEF0DF0DA
:101A4000000E0C6E000E0B6E000E0E6E000E0D6E74
:101A5000000E106E000E0F6E010E1124296E000E86
:101A600012202A6E010E2914116E126A000E146ED5
:101A7000000E136E11041210D8A441EF0DF043EFC5
:101A80000DF07DEF0DF00CBE4FEF0DF00C5009E1A5
:101A9000640E0B5CD8A04FEF0DF051EF0DF057EF37
:101AA0000DF0000E0C6E000E0B6E0D4A0E2A0EBECF
:101AB00063EF0DF00E5009E13C0E0D5CD8A063EF12
:101AC0000DF065EF0DF06BEF0DF0000E0E6E000ED9
:101AD0000D6E0F4A102A10BE77EF0DF0105009E17D
:101AE0003C0E0F5CD8A077EF0DF079EF0DF07DEF95
:101AF0000DF0000E106E000E0F6E1200800E25EC21
:101B000010F0010E306E100E316EE9EC10F0C00EC8
:101B100025EC10F00FC029F010C02AF0000E2C6E3A
:101B20000A0E2B6E58EC0EF02950300FFAEC0FF025
:101B30000FC029F010C02AF0000E2C6E0A0E2B6E7A
:101B40001BEC0FF02950300FFAEC0FF0C20E25EC11
:101B500010F03A0EFAEC0FF0C30E25EC10F00DC0A9
:101B600029F00EC02AF0000E2C6E0A0E2B6E58ECD7
:101B70000EF02950300FFAEC0FF00DC029F00EC016
:101B80002AF0000E2C6E0A0E2B6E1BEC0FF0295063
:101B9000300FFAEC0FF0C50E25EC10F03A0EFAEC0F
:101BA0000FF0C60E25EC10F00BC029F00CC02AF087
:101BB000000E2C6E0A0E2B6E58EC0EF02950300FD2
:101BC000FAEC0FF00BC029F00CC02AF0000E2C6EBE
:101BD0000A0E2B6E1BEC0FF02950300FFAEC0FF0B1
:101BE0001200800E25EC10F0120E306E100E316EC9
:101BF000E9EC10F0C00E25EC10F005C029F006C08D
:101C00002AF0000E2C6E0A0E2B6E58EC0EF02950A6
:101C1000300FFAEC0FF005C029F006C02AF0000ED4
:101C20002C6E0A0E2B6E1BEC0FF02950300FFAECC5
:101C30000FF03A0EFAEC0FF007C029F008C02AF0B6
:101C4000000E2C6E0A0E2B6E58EC0EF02950300F41
:101C5000FAEC0FF007C029F008C02AF0000E2C6E35
:101C60000A0E2B6E1BEC0FF02950300FFAEC0FF020
:101C70003A0EFAEC0FF009C029F00AC02AF0000E63
:101C80002C6E0A0E2B6E58EC0EF02950300FFAEC29
:101C90000FF009C029F00AC02AF0000E2C6E0A0EBF
:101CA0002B6E1BEC0FF02950300FFAEC0FF01200E6
:101CB000000E2E6E2CBE61EF0EF05FEF0EF067EFA0
:101CC0000EF02B6C2C1ED8B02C2A010E2E6E2ABEC4
:101CD0006EEF0EF06CEF0EF074EF0EF0296C2A1E12
:101CE000D8B02A2A010E2E1A000E306E000E2F6E6A
:101CF0002B502C10D8B47FEF0EF081EF0EF0A9EF2F
:101D00000EF0010E2D6E89EF0EF0D8902B362C368A
:101D10002D2A2CAE8EEF0EF090EF0EF085EF0EF028
:101D2000D8902F3630362B50295C2C502A58D8A00A
:101D30009CEF0EF09EEF0EF0A3EF0EF02B50295EFD
:101D40002C502A5A2F80D8902C322B322D2E90EFE7
:101D50000EF02E50D8B4AFEF0EF0B1EF0EF0B5EF9D
:101D60000EF02F6C301ED8B0302A2FC029F030C0B2
:101D70002AF01200C5EC10F021C025F022C026F098
:101D8000A1EC10F021C027F022C028F02504261075
:101D9000D8A4CDEF0EF0CFEF0EF0D5EF0EF0000E81
:101DA0001A6E010E196E1AEF0FF027042810D8A42E
:101DB000DCEF0EF0DEEF0EF008EF0FF01D4A1E2AEA
:101DC0001EBEECEF0EF01E5009E1640E1D5CD8A0A3
:101DD000ECEF0EF0EEEF0EF01AEF0FF01B4A1C2A9C
:101DE0001CBEFCEF0EF01C5009E1150E1B5CD8A0C8
:101DF000FCEF0EF0FEEF0EF01AEF0FF0000E186E73
:101E0000010E176E000E1C6E000E1B6E1AEF0FF007
:101E1000000E1E6E000E1D6E000E1C6E000E1B6E60
:101E2000000E1A6E000E196E000E186E000E176E60
:101E30001AEF0FF01200000E2E6E2ABE24EF0FF0E4
:101E400022EF0FF02AEF0FF0296C2A1ED8B02A2AB1
:101E5000010E2E6E2CBE31EF0FF02FEF0FF035EF8D
:101E60000FF02B6C2C1ED8B02C2A2B502C10D8B471
:101E70003CEF0FF03EEF0FF062EF0FF0010E2D6E12
:101E800046EF0FF0D8902B362C362D2A2CAE4BEF88
:101E90000FF04DEF0FF042EF0FF02B50295C2C505C
:101EA0002A58D8A056EF0FF058EF0FF05CEF0FF064
:101EB0002B50295E2C502A5AD8902C322B322D2EA2
:101EC0004DEF0FF02E50D8B468EF0FF06AEF0FF01F
:101ED0006EEF0FF0296C2A1ED8B02A2A29C029F0EB
:101EE0002AC02AF0120016BE7FEF0FF0165009E14B
:101EF000640E155CD8A07FEF0FF081EF0FF0C1EFFB
:101F00000FF0000E166E000E156E094A0A2A0ABE60
:101F100093EF0FF00A5009E13C0E095CD8A093EF53
:101F20000FF095EF0FF09BEF0FF0000E0A6E000E12
:101F3000096E074A082A08BEA7EF0FF0085009E10A
:101F40003C0E075CD8A0A7EF0FF0A9EF0FF0AFEFA2
:101F50000FF0000E086E000E076E054A062A06BE38
:101F6000BBEF0FF0065009E1180E055CD8A0BBEFDF
:101F70000FF0BDEF0FF0C1EF0FF0000E066E000E78
:101F8000056E1200296E29C02BF0000E2A6E29AEB4
:101F9000CCEF0FF0CEEF0FF0D1EF0FF08B8AD2EF36
:101FA0000FF08B9A8BA8D7EF0FF0D9EF0FF0DDEF82
:101FB0000FF0D8802B36E0EF0FF02B502B242B6E38
:101FC0008B8600F000F000F000F000F000F000F070
:101FD00000F000F000F000F000F08B96D890293669
:101FE0002A2A070E2A64F7EF0FF0F9EF0FF0C7EF78
:101FF0000FF012002F6E800E2C6E120E30EC11F0CE
:10200000040E2E6E3E0EE82EFED72E2EFCD72FC0CD
:102010002CF0130E30EC11F0040E2E6E3E0EE82E56
:10202000FED72E2EFCD7C00E2C6E120E30EC11F007
:10203000040E2E6E3E0EE82EFED72E2EFCD7000E7E
:102040002C6E120E30EC11F012002F6E000E2C6E62
:10205000120E30EC11F0040E2E6E3E0EE82EFED75E
:102060002E2EFCD72FC02CF0130E30EC11F0040EE6
:102070002E6E3E0EE82EFED72E2EFCD7400E2C6E76
:10208000120E30EC11F0040E2E6E3E0EE82EFED72E
:102090002E2EFCD7000E2C6E120E30EC11F012001A
:1020A0000600F2A456EF10F058EF10F077EF10F0A2
:1020B000F2AA5DEF10F05FEF10F077EF10F0F294FE
:1020C000FD0ED76EAF0ED66E154A162A000E146E90
:1020D000010E136E11041210D8A471EF10F073EFFB
:1020E00010F075EF10F00B4A0C2ABAEC0EF03A9291
:1020F000110047EC11F0979C8E9C8E8C000E23EC07
:1021000011F0010E23EC11F0000E2C6E120E30ECCB
:1021100011F0310E306EB20EE82EFED7302EFCD705
:1021200000D0320E25EC10F03C0E25EC10F00C0E19
:1021300025EC10F0010E25EC10F0060E25EC10F049
:10214000120036C037F0000E81B0010E366E000E60
:10215000246E000E236E36503718D8A4B2EF10F05C
:10216000B4EF10F0C0EF10F03750D8A4BAEF10F071
:10217000BCEF10F0C0EF10F0000E246E010E236EC5
:1021800023C021F024C022F0120038C039F0000E24
:1021900080BA010E386E000E246E000E236E385089
:1021A0003918D8A4D6EF10F0D8EF10F0E4EF10F003
:1021B0003950D8A4DEEF10F0E0EF10F0E4EF10F0AB
:1021C000000E246E010E236E23C021F024C022F0E5
:1021D0001200F7EF10F030C0F6FF31C0F7FF000E2D
:1021E000F86E0800F550FAEC0FF0304A312A30C092
:1021F000F6FF31C0F7FF000EF86E0800F550000939
:10220000D8A405EF11F007EF11F0EBEF10F012007A
:10221000B40EF66E220EF76E000EF86E00EE36F07B
:1022200010EE04F00900F5CFEEFFE550E150FAE1C1
:1022300000EE01F0200EEE6AE806FDE13A903A92D7
:1022400000012AEF08F02C6E8994400EC2EC0FF0CA
:102250002C50C2EC0FF0000EC2EC0FF0898412007B
:102260002D6E8994400EC2EC0FF02D50C2EC0FF091
:102270002C50C2EC0FF089841200F28EF28AF29494
:10228000840ED56EFD0ED76E8F0ED66E1200929410
:102290009488949A949689848B888B9A8B96120052
:1022A000770ED36E0F0E9B6E1200928A93800F0EE4
:0822B000C16E120001010101E1
:020000040020DA
:08000000FFFFFFFFFFFFFFFF00
:020000040030CA
:0E000000FF06191EF38381FFFFC0FFE0FF40E3
:00000001FF
