:020000040000FA
:0400000007EF00F016
:0A0008003B8262ED10F080EF10F073
:101000000020202053544F50205741544348202063
:10101000200020204E4F524D414C20434C4F434B1B
:10102000202000204D4F44494649455320484F5504
:101030005220004D4F444946494553204D494E5595
:1010400054450000E6EF09F0800E98EC0FF0230EF7
:101050002E6E100E2F6E43EC10F0C00E98EC0FF0B9
:1010600013C027F014C028F0000E2A6E0A0E296E55
:1010700086EC0EF027502810D8A441EF08F043EF7B
:1010800008F07AEF08F009500A10D8A44AEF08F0E7
:101090004CEF08F054EF08F0200E65EC0FF0200E36
:1010A00065EC0FF070EF08F00BC027F00CC028F0D3
:1010B000000E2A6E0A0E296EC3EC0DF02750300F79
:1010C00065EC0FF00BC027F00CC028F0000E2A6E64
:1010D0000A0E296E86EC0EF02750300F65EC0FF0EB
:1010E000010E0924306E000E0A20316E010E3014FC
:1010F000096E0A6A3A0E65EC0FF00DC027F00EC0BB
:1011000028F0000E2A6E0A0E296EC3EC0DF027504F
:10111000300F65EC0FF00DC027F00EC028F0000E68
:101120002A6E0A0E296E86EC0EF02750300F65EC01
:101130000FF03A0E65EC0FF00FC027F010C028F04A
:10114000000E2A6E0A0E296EC3EC0DF02750300FE8
:1011500065EC0FF00FC027F010C028F0000E2A6ECB
:101160000A0E296E86EC0EF02750300F65EC0FF05A
:1011700007EF0AF0800E98EC0FF0330E2E6E100E73
:101180002F6E43EC10F0C00E98EC0FF00BC027F060
:101190000CC028F0000E2A6E0A0E296EC3EC0DF06A
:1011A0002750300F65EC0FF00BC027F00CC028F073
:1011B000000E2A6E0A0E296E86EC0EF02750300FB4
:1011C00065EC0FF03A0E65EC0FF013C027F014C079
:1011D00028F0000E2A6E0A0E296E86EC0EF02750BB
:1011E0002810D8A4F6EF08F0F8EF08F02FEF09F078
:1011F00009500A10D8A4FFEF08F001EF09F009EF39
:1012000009F0200E65EC0FF0200E65EC0FF025EFD5
:1012100009F00DC027F00EC028F0000E2A6E0A0E4D
:10122000296EC3EC0DF02750300F65EC0FF00DC0A8
:1012300027F00EC028F0000E2A6E0A0E296E86ECEA
:101240000EF02750300F65EC0FF0010E0924306EC0
:10125000000E0A20316E010E3014096E0A6A3A0E31
:1012600065EC0FF00FC027F010C028F0000E2A6EBA
:101270000A0E296EC3EC0DF02750300F65EC0FF00D
:101280000FC027F010C028F0000E2A6E0A0E296E3B
:1012900086EC0EF02750300F65EC0FF007EF0AF0E8
:1012A000800E98EC0FF0330E2E6E100E2F6E43EC66
:1012B00010F0C00E98EC0FF00BC027F00CC028F017
:1012C000000E2A6E0A0E296EC3EC0DF02750300F67
:1012D00065EC0FF00BC027F00CC028F0000E2A6E52
:1012E0000A0E296E86EC0EF02750300F65EC0FF0D9
:1012F0003A0E65EC0FF00DC027F00EC028F0000E7E
:101300002A6E0A0E296EC3EC0DF02750300F65ECE3
:101310000FF00DC027F00EC028F0000E2A6E0A0E46
:10132000296E86EC0EF02750300F65EC0FF03A0E68
:1013300065EC0FF013C027F014C028F0000E2A6EE1
:101340000A0E296E86EC0EF027502810D8A4ABEFB9
:1013500009F0ADEF09F007EF0AF009500A10D8A420
:10136000B4EF09F0B6EF09F0BEEF09F0200E65EC1E
:101370000FF0200E65EC0FF0DAEF09F00FC027F048
:1013800010C028F0000E2A6E0A0E296EC3EC0DF074
:101390002750300F65EC0FF00FC027F010C028F079
:1013A000000E2A6E0A0E296E86EC0EF02750300FC2
:1013B00065EC0FF0010E0924306E000E0A20316E2C
:1013C000010E3014096E0A6A07EF0AF01E50306EE3
:1013D000316A3150000AD8B4F0EF09F007EF0AF093
:1013E0003050000AD8B407EF0AF0010AD8B424EF4D
:1013F00008F0030AD8B4BAEF08F0010AD8B450EFE5
:1014000009F0070AD8B407EF0AF007EF0AF0120054
:10141000CCEC10F09BEC10F0D1EC10F0CBEC0FF01A
:10142000000E1E6E000E1D6E8BEF0AF0DEEC0EF04D
:101430001CEF0AF05CEC0DF01E50D8B422EF0AF05D
:1014400024EF0AF01AEF0AF017041810D8A42BEFB3
:101450000AF02DEF0AF0ACEF0AF0000E186E000E45
:10146000176E010E1E6EACEF0AF0DEEC0BF022ECF4
:1014700008F017041810D8A440EF0AF042EF0AF061
:10148000ACEF0AF0000E186E000E176E020E1E6E04
:10149000ACEF0AF046EC0BF022EC08F01704181041
:1014A000D8A455EF0AF057EF0AF0ACEF0AF0000E9F
:1014B000186E000E176E030E1E6EACEF0AF0AEEC47
:1014C0000AF022EC08F017041810D8A46AEF0AF00A
:1014D0006CEF0AF0ACEF0AF0000E186E000E176EFB
:1014E000040E1E6EACEF0AF0DEEC0EF076EC0CF0A3
:1014F000F5EC0CF017041810D8A481EF0AF083EF74
:101500000AF0ACEF0AF0000E186E000E176E000E17
:101510001E6EACEF0AF01E50326E336A3350000A72
:10152000D8B495EF0AF0ACEF0AF03250000AD8B404
:1015300016EF0AF0010AD8B435EF0AF0030AD8B45E
:101540004AEF0AF0010AD8B45FEF0AF0070AD8B4EC
:1015500074EF0AF0ACEF0AF007EF00F01AEF0BF0AF
:1015600017041810D8A4B7EF0AF0B9EF0AF033EF58
:101570000BF01CBEC4EF0AF01C5008E11B04D8A0FD
:10158000C4EF0AF0C6EF0AF033EF0BF00F4A102A4F
:10159000010E1D6E33EF0BF01B501C10D8B4D3EFAF
:1015A0000AF0D5EF0AF0DEEF0AF017041810D8A4FD
:1015B000DCEF0AF0DEEF0AF0E0EF0AF0000E1D6E3D
:1015C0001ABEEBEF0AF01A5008E11904D8A0EBEFAD
:1015D0000AF0EDEF0AF033EF0BF0000E166E010E7D
:1015E000156E020E1D6E33EF0BF01B501C10D8B49D
:1015F000FCEF0AF0FEEF0AF007EF0BF017041810EB
:10160000D8A405EF0BF007EF0BF009EF0BF0000E7D
:101610001D6E15041610D8A410EF0BF012EF0BF08E
:1016200033EF0BF0000E166E000E156E0F4A102AE7
:1016300033EF0BF01D50276E286A2850000AD8B4EB
:1016400024EF0BF033EF0BF02750000AD8B4B0EFC3
:101650000AF0010AD8B4CCEF0AF0030AD8B4F5EFC7
:101660000AF033EF0BF010BE3FEF0BF0105009E122
:101670003C0E0F5CD8A03FEF0BF041EF0BF045EFB5
:101680000BF0000E106E000E0F6E1200B2EF0BF09A
:1016900017041810D8A44FEF0BF051EF0BF0CBEF5D
:1016A0000BF01CBE5CEF0BF01C5008E11B04D8A033
:1016B0005CEF0BF05EEF0BF0CBEF0BF00D4A0E2A58
:1016C000010E1D6ECBEF0BF01B501C10D8B46BEF4E
:1016D0000BF06DEF0BF076EF0BF017041810D8A499
:1016E00074EF0BF076EF0BF078EF0BF0000E1D6E41
:1016F0001ABE83EF0BF01A5008E11904D8A083EF4B
:101700000BF085EF0BF0CBEF0BF0000E166E010E19
:10171000156E020E1D6ECBEF0BF01B501C10D8B4D3
:1017200094EF0BF096EF0BF09FEF0BF017041810EF
:10173000D8A49DEF0BF09FEF0BF0A1EF0BF0000E84
:101740001D6E15041610D8A4A8EF0BF0AAEF0BF02D
:10175000CBEF0BF0000E166E000E156E0D4A0E2A22
:10176000CBEF0BF01D50276E286A2850000AD8B422
:10177000BCEF0BF0CBEF0BF02750000AD8B448EFCA
:101780000BF0010AD8B464EF0BF0030AD8B48DEF64
:101790000BF0CBEF0BF00EBED7EF0BF00E5009E1C4
:1017A0003C0E0D5CD8A0D7EF0BF0D9EF0BF0DDEFBE
:1017B0000BF0000E0E6E000E0D6E12004AEF0CF0D4
:1017C00017041810D8A4E7EF0BF0E9EF0BF063EF64
:1017D0000CF01CBEF4EF0BF01C5008E11B04D8A069
:1017E000F4EF0BF0F6EF0BF063EF0CF00B4A0C2A62
:1017F000010E1D6E63EF0CF01B501C10D8B403EFEC
:101800000CF005EF0CF00EEF0CF017041810D8A434
:101810000CEF0CF00EEF0CF010EF0CF0000E1D6E44
:101820001ABE1BEF0CF01A5008E11904D8A01BEFE8
:101830000CF01DEF0CF063EF0CF0000E166E010EB5
:10184000156E020E1D6E63EF0CF01B501C10D8B409
:101850002CEF0CF02EEF0CF037EF0CF017041810F3
:10186000D8A435EF0CF037EF0CF039EF0CF0000E88
:101870001D6E15041610D8A440EF0CF042EF0CF0CA
:1018800063EF0CF0000E166E000E156E0B4A0C2A5C
:1018900063EF0CF01D50276E286A2850000AD8B458
:1018A00054EF0CF063EF0CF02750000AD8B4E0EFCF
:1018B0000BF0010AD8B4FCEF0BF0030AD8B425EF03
:1018C0000CF063EF0CF00CBE6FEF0CF00C5009E164
:1018D000180E0B5CD8A06FEF0CF071EF0CF075EFE9
:1018E0000CF0000E0C6E000E0B6E12001CBE81EF91
:1018F0000CF01C5008E11B04D8A081EF0CF083EF22
:101900000CF0A2EF0CF007500810D8A48AEF0CF0EE
:101910008CEF0CF098EF0CF0000E026E000E016ED2
:10192000000E046E000E036E000E066E000E056EB5
:10193000010E0724276E000E0820286E010E2714C2
:10194000076E086A07040810D8A4A9EF0CF0ABEFE3
:101950000CF0F4EF0CF011041210D8A4B2EF0CF05C
:10196000B4EF0CF0F4EF0CF0014A022A02BEC2EF11
:101970000CF0025009E1640E015CD8A0C2EF0CF03B
:10198000C4EF0CF0CAEF0CF0000E026E000E016EF8
:10199000034A042A04BED6EF0CF0045009E13C0EC1
:1019A000035CD8A0D6EF0CF0D8EF0CF0DEEF0CF013
:1019B000000E046E000E036E054A062A06BEEAEF0C
:1019C0000CF0065009E13C0E055CD8A0EAEF0CF0E3
:1019D000ECEF0CF0F0EF0CF0000E066E000E056E52
:1019E000000E126E000E116E1200800E98EC0FF0B9
:1019F000010E2E6E100E2F6E43EC10F0C00E98EC00
:101A00000FF005C027F006C028F0000E2A6E0A0E5F
:101A1000296EC3EC0DF02750300F65EC0FF005C0B8
:101A200027F006C028F0000E2A6E0A0E296E86ECFA
:101A30000EF02750300F65EC0FF03A0E65EC0FF00A
:101A400003C027F004C028F0000E2A6E0A0E296E8B
:101A5000C3EC0DF02750300F65EC0FF003C027F0FA
:101A600004C028F0000E2A6E0A0E296E86EC0EF0D5
:101A70002750300F65EC0FF03A0E65EC0FF001C007
:101A800027F002C028F0000E2A6E0A0E296EC3EC61
:101A90000DF02750300F65EC0FF001C027F002C0A9
:101AA00028F0000E2A6E0A0E296E86EC0EF02750E2
:101AB000300F65EC0FF01200800E98EC0FF0120E54
:101AC0002E6E100E2F6E43EC10F0C00E98EC0FF03F
:101AD0000BC027F00CC028F0000E2A6E0A0E296EEB
:101AE000C3EC0DF02750300F65EC0FF00BC027F062
:101AF0000CC028F0000E2A6E0A0E296E86EC0EF03D
:101B00002750300F65EC0FF03A0E65EC0FF00DC06A
:101B100027F00EC028F0000E2A6E0A0E296EC3ECC4
:101B20000DF02750300F65EC0FF00DC027F00EC000
:101B300028F0000E2A6E0A0E296E86EC0EF0275051
:101B4000300F65EC0FF03A0E65EC0FF00FC027F088
:101B500010C028F0000E2A6E0A0E296EC3EC0DF09C
:101B60002750300F65EC0FF00FC027F010C028F0A1
:101B7000000E2A6E0A0E296E86EC0EF02750300FEA
:101B800065EC0FF01200000E2C6E2ABECCEF0DF0AB
:101B9000CAEF0DF0D2EF0DF0296C2A1ED8B02A2A18
:101BA000010E2C6E28BED9EF0DF0D7EF0DF0DFEF50
:101BB0000DF0276C281ED8B0282A010E2C1A000E12
:101BC0002E6E000E2D6E29502A10D8B4EAEF0DF0BB
:101BD000ECEF0DF014EF0EF0010E2B6EF4EF0DF0A4
:101BE000D89029362A362B2A2AAEF9EF0DF0FBEFD2
:101BF0000DF0F0EF0DF0D8902D362E362950275CE1
:101C00002A502858D8A007EF0EF009EF0EF00EEF7B
:101C10000EF02950275E2A50285A2D80D8902A325B
:101C200029322B2EFBEF0DF02C50D8B41AEF0EF00A
:101C30001CEF0EF020EF0EF02D6C2E1ED8B02E2AC9
:101C40002DC027F02EC028F012001FEC10F01FC08E
:101C500023F020C024F0FBEC0FF01FC025F020C0C3
:101C600026F023042410D8A438EF0EF03AEF0EF03B
:101C700040EF0EF0000E186E010E176E85EF0EF09D
:101C800025042610D8A447EF0EF049EF0EF073EFAD
:101C90000EF01B4A1C2A1CBE57EF0EF01C5009E127
:101CA000640E1B5CD8A057EF0EF059EF0EF085EFD5
:101CB0000EF0194A1A2A1ABE67EF0EF01A5009E1FF
:101CC000150E195CD8A067EF0EF069EF0EF085EFE6
:101CD0000EF0000E166E010E156E000E1A6E000E3E
:101CE000196E85EF0EF0000E1C6E000E1B6E000EBE
:101CF0001A6E000E196E000E186E000E176E000E92
:101D0000166E000E156E85EF0EF01200000E2C6E92
:101D100028BE8FEF0EF08DEF0EF095EF0EF0276CD2
:101D2000281ED8B0282A010E2C6E2ABE9CEF0EF079
:101D30009AEF0EF0A0EF0EF0296C2A1ED8B02A2AD6
:101D400029502A10D8B4A7EF0EF0A9EF0EF0CDEF6E
:101D50000EF0010E2B6EB1EF0EF0D89029362A3618
:101D60002B2A2AAEB6EF0EF0B8EF0EF0ADEF0EF064
:101D70002950275C2A502858D8A0C1EF0EF0C3EF95
:101D80000EF0C7EF0EF02950275E2A50285AD8903F
:101D90002A3229322B2EB8EF0EF02C50D8B4D3EFC4
:101DA0000EF0D5EF0EF0D9EF0EF0276C281ED8B04C
:101DB000282A27C027F028C028F0120014BEEAEF16
:101DC0000EF0145009E1640E135CD8A0EAEF0EF097
:101DD000ECEF0EF02CEF0FF0000E146E000E136EF1
:101DE0000F4A102A10BEFEEF0EF0105009E13C0E13
:101DF0000F5CD8A0FEEF0EF000EF0FF006EF0FF033
:101E0000000E106E000E0F6E0D4A0E2A0EBE12EF5F
:101E10000FF00E5009E13C0E0D5CD8A012EF0FF050
:101E200014EF0FF01AEF0FF0000E0E6E000E0D6E95
:101E30000B4A0C2A0CBE26EF0FF00C5009E1180ECD
:101E40000B5CD8A026EF0FF028EF0FF02CEF0FF06F
:101E5000000E0C6E000E0B6E1200276E27C029F0CC
:101E6000000E286E27AE37EF0FF039EF0FF03CEF82
:101E70000FF08B8A3DEF0FF08B9A8BA842EF0FF09B
:101E800044EF0FF048EF0FF0D88029364BEF0FF0FA
:101E900029502924296E8B8600F000F000F000F014
:101EA00000F000F000F000F000F000F000F000F0B2
:101EB0008B96D8902736282A070E286462EF0FF0F9
:101EC00064EF0FF032EF0FF012002D6E110E2C6E3A
:101ED0003A0EE82EFED72C2EFCD700D0800E2A6EAC
:101EE000120EB6EC10F0040E2C6E3E0EE82EFED74D
:101EF0002C2EFCD72DC02AF0130EB6EC10F0040ED9
:101F00002C6E3E0EE82EFED72C2EFCD7C00E2A6E6D
:101F1000120EB6EC10F0040E2C6E3E0EE82EFED71C
:101F20002C2EFCD7000E2A6E120EB6EC10F012000A
:101F30002D6E110E2C6E3A0EE82EFED72C2EFCD7ED
:101F400000D0000E2A6E120EB6EC10F0040E2C6EAD
:101F50003E0EE82EFED72C2EFCD72DC02AF0130EF5
:101F6000B6EC10F0040E2C6E3E0EE82EFED72C2E92
:101F7000FCD7400E2A6E120EB6EC10F0040E2C6E3A
:101F80003E0EE82EFED72C2EFCD7000E2A6E120E27
:101F9000B6EC10F01200C3EC10F0979C8E9C110E62
:101FA0002E6E3A0EE82EFED72E2EFCD700D08E8C49
:101FB000000EA9EC10F0010EA9EC10F0000E2A6E34
:101FC000120EB6EC10F0310E2E6EB20EE82EFED7C9
:101FD0002E2EFCD700D0320E98EC0FF03C0E98EC71
:101FE0000FF00C0E98EC0FF0010E98EC0FF0060EAF
:101FF00098EC0FF0120034C035F0000E81B0010EE5
:10200000346E000E226E000E216E34503518D8A4A6
:102010000CEF10F00EEF10F01AEF10F03550D8A4BE
:1020200014EF10F016EF10F01AEF10F0000E226E01
:10203000010E216E21C01FF022C020F0120036C018
:1020400037F0000E80BA010E366E000E226E000EC2
:10205000216E36503718D8A430EF10F032EF10F060
:102060003EEF10F03750D8A438EF10F03AEF10F0F0
:102070003EEF10F0000E226E010E216E21C01FF007
:1020800022C020F0120051EF10F02EC0F6FF2FC03A
:10209000F7FF000EF86E0800F55065EC0FF02E4AC1
:1020A0002F2A2EC0F6FF2FC0F7FF000EF86E080093
:1020B000F5500009D8A45FEF10F061EF10F045EF84
:1020C00010F012000600F2A468EF10F06AEF10F0B2
:1020D0007EEF10F0F2AA6FEF10F071EF10F07EEFCC
:1020E00010F0F294000ED76E38C0D6FF134A142AAF
:1020F000000E126E010E116E25EC0EF03B921100D7
:10210000AC0EF66E210EF76E000EF86E00EE34F097
:1021100010EE04F00900F5CFEEFFE550E150FAE1D2
:1021200000EE01F01E0EEE6AE806FDE13B903B92E8
:10213000000108EF0AF0F28EF28A810ED56EFD0ED4
:10214000D76E8F0ED66ED6CF38F0D7CF39F03A6A29
:1021500012002A6E8994400E2DEC0FF02A502DECBF
:102160000FF0000E2DEC0FF0898412002B6E899475
:10217000400E2DEC0FF02B502DEC0FF02A502DECD3
:102180000FF08984120092949488949A949689848A
:102190008B888B9A8B961200470ED36E0F0E9B6E18
:1021A0001200928A93800F0EC16E1200010101018C
:020000040020DA
:08000000FFFFFFFFFFFFFFFF00
:020000040030CA
:0E000000FF06191EF38381FFFFC0FFE0FF40E3
:00000001FF
