:020000040000FA
:0400000007EF00F016
:0A0008003B8258ED10F076EF10F087
:101000000020202053544F50205741544348202063
:10101000200020204E4F524D414C20434C4F434B1B
:10102000202000204D4F44494649455320484F5504
:101030005220004D4F444946494553204D494E5595
:1010400054450000E6EF09F0800E8EEC0FF0230E01
:101050002E6E100E2F6E39EC10F0C00E8EEC0FF0CD
:1010600013C027F014C028F0000E2A6E0A0E296E55
:101070007CEC0EF027502810D8A441EF08F043EF85
:1010800008F07AEF08F009500A10D8A44AEF08F0E7
:101090004CEF08F054EF08F0200E5BEC0FF0200E40
:1010A0005BEC0FF070EF08F00BC027F00CC028F0DD
:1010B000000E2A6E0A0E296EB9EC0DF02750300F83
:1010C0005BEC0FF00BC027F00CC028F0000E2A6E6E
:1010D0000A0E296E7CEC0EF02750300F5BEC0FF0FF
:1010E000010E0924306E000E0A20316E010E3014FC
:1010F000096E0A6A3A0E5BEC0FF00DC027F00EC0C5
:1011000028F0000E2A6E0A0E296EB9EC0DF0275059
:10111000300F5BEC0FF00DC027F00EC028F0000E72
:101120002A6E0A0E296E7CEC0EF02750300F5BEC15
:101130000FF03A0E5BEC0FF00FC027F010C028F054
:10114000000E2A6E0A0E296EB9EC0DF02750300FF2
:101150005BEC0FF00FC027F010C028F0000E2A6ED5
:101160000A0E296E7CEC0EF02750300F5BEC0FF06E
:1011700007EF0AF0800E8EEC0FF0330E2E6E100E7D
:101180002F6E39EC10F0C00E8EEC0FF00BC027F074
:101190000CC028F0000E2A6E0A0E296EB9EC0DF074
:1011A0002750300F5BEC0FF00BC027F00CC028F07D
:1011B000000E2A6E0A0E296E7CEC0EF02750300FBE
:1011C0005BEC0FF03A0E5BEC0FF013C027F014C08D
:1011D00028F0000E2A6E0A0E296E7CEC0EF02750C5
:1011E0002810D8A4F6EF08F0F8EF08F02FEF09F078
:1011F00009500A10D8A4FFEF08F001EF09F009EF39
:1012000009F0200E5BEC0FF0200E5BEC0FF025EFE9
:1012100009F00DC027F00EC028F0000E2A6E0A0E4D
:10122000296EB9EC0DF02750300F5BEC0FF00DC0BC
:1012300027F00EC028F0000E2A6E0A0E296E7CECF4
:101240000EF02750300F5BEC0FF0010E0924306ECA
:10125000000E0A20316E010E3014096E0A6A3A0E31
:101260005BEC0FF00FC027F010C028F0000E2A6EC4
:101270000A0E296EB9EC0DF02750300F5BEC0FF021
:101280000FC027F010C028F0000E2A6E0A0E296E3B
:101290007CEC0EF02750300F5BEC0FF007EF0AF0FC
:1012A000800E8EEC0FF0330E2E6E100E2F6E39EC7A
:1012B00010F0C00E8EEC0FF00BC027F00CC028F021
:1012C000000E2A6E0A0E296EB9EC0DF02750300F71
:1012D0005BEC0FF00BC027F00CC028F0000E2A6E5C
:1012E0000A0E296E7CEC0EF02750300F5BEC0FF0ED
:1012F0003A0E5BEC0FF00DC027F00EC028F0000E88
:101300002A6E0A0E296EB9EC0DF02750300F5BECF7
:101310000FF00DC027F00EC028F0000E2A6E0A0E46
:10132000296E7CEC0EF02750300F5BEC0FF03A0E7C
:101330005BEC0FF013C027F014C028F0000E2A6EEB
:101340000A0E296E7CEC0EF027502810D8A4ABEFC3
:1013500009F0ADEF09F007EF0AF009500A10D8A420
:10136000B4EF09F0B6EF09F0BEEF09F0200E5BEC28
:101370000FF0200E5BEC0FF0DAEF09F00FC027F052
:1013800010C028F0000E2A6E0A0E296EB9EC0DF07E
:101390002750300F5BEC0FF00FC027F010C028F083
:1013A000000E2A6E0A0E296E7CEC0EF02750300FCC
:1013B0005BEC0FF0010E0924306E000E0A20316E36
:1013C000010E3014096E0A6A07EF0AF01E50306EE3
:1013D000316A3150000AD8B4F0EF09F007EF0AF093
:1013E0003050000AD8B407EF0AF0010AD8B424EF4D
:1013F00008F0030AD8B4BAEF08F0010AD8B450EFE5
:1014000009F0070AD8B407EF0AF007EF0AF0120054
:10141000C2EC10F091EC10F0C7EC10F0C1EC0FF042
:10142000000E1E6E000E1D6E81EF0AF0D4EC0EF061
:1014300052EC0DF017041810D8A421EF0AF023EF96
:101440000AF0A2EF0AF0000E186E000E176E010EE1
:101450001E6EA2EF0AF0D4EC0BF022EC08F0170499
:101460001810D8A436EF0AF038EF0AF0A2EF0AF00D
:10147000000E186E000E176E020E1E6EA2EF0AF01E
:101480003CEC0BF022EC08F017041810D8A44BEF3A
:101490000AF04DEF0AF0A2EF0AF0000E186E000EEF
:1014A000176E030E1E6EA2EF0AF0A4EC0AF022ECF7
:1014B00008F017041810D8A460EF0AF062EF0AF0E1
:1014C000A2EF0AF0000E186E000E176E040E1E6ECC
:1014D000A2EF0AF0D4EC0EF06CEC0CF0EBEC0CF09C
:1014E00017041810D8A477EF0AF079EF0AF0A2EFEA
:1014F0000AF0000E186E000E176E000E1E6EA2EFA0
:101500000AF01E50326E336A3350000AD8B48BEFA3
:101510000AF0A2EF0AF03250000AD8B416EF0AF02F
:10152000010AD8B42BEF0AF0030AD8B440EF0AF04E
:10153000010AD8B455EF0AF0070AD8B46AEF0AF0E6
:10154000A2EF0AF007EF00F010EF0BF017041810ED
:10155000D8A4ADEF0AF0AFEF0AF029EF0BF01CBEF4
:10156000BAEF0AF01C5008E11B04D8A0BAEF0AF049
:10157000BCEF0AF029EF0BF00F4A102A010E1D6E86
:1015800029EF0BF01B501C10D8B4C9EF0AF0CBEFB9
:101590000AF0D4EF0AF017041810D8A4D2EF0AF01A
:1015A000D4EF0AF0D6EF0AF0000E1D6E1ABEE1EF7E
:1015B0000AF01A5008E11904D8A0E1EF0AF0E3EFAD
:1015C0000AF029EF0BF0000E166E010E156E020EDA
:1015D0001D6E29EF0BF01B501C10D8B4F2EF0AF06F
:1015E000F4EF0AF0FDEF0AF017041810D8A4FBEF8F
:1015F0000AF0FDEF0AF0FFEF0AF0000E1D6E150471
:101600001610D8A406EF0BF008EF0BF029EF0BF043
:10161000000E166E000E156E0F4A102A29EF0BF001
:101620001D50276E286A2850000AD8B41AEF0BF014
:1016300029EF0BF02750000AD8B4A6EF0AF0010AF0
:10164000D8B4C2EF0AF0030AD8B4EBEF0AF029EFDE
:101650000BF010BE35EF0BF0105009E13C0E0F5CA3
:10166000D8A035EF0BF037EF0BF03BEF0BF0000E8F
:10167000106E000E0F6E1200A8EF0BF0170418107A
:10168000D8A445EF0BF047EF0BF0C1EF0BF01CBEF9
:1016900052EF0BF01C5008E11B04D8A052EF0BF0E6
:1016A00054EF0BF0C1EF0BF00D4A0E2A010E1D6E28
:1016B000C1EF0BF01B501C10D8B461EF0BF063EFBF
:1016C0000BF06CEF0BF017041810D8A46AEF0BF0B6
:1016D0006CEF0BF06EEF0BF0000E1D6E1ABE79EF83
:1016E0000BF01A5008E11904D8A079EF0BF07BEF4A
:1016F0000BF0C1EF0BF0000E166E010E156E020E10
:101700001D6EC1EF0BF01B501C10D8B48AEF0BF00C
:101710008CEF0BF095EF0BF017041810D8A493EF93
:101720000BF095EF0BF097EF0BF0000E1D6E15040C
:101730001610D8A49EEF0BF0A0EF0BF0C1EF0BF04A
:10174000000E166E000E156E0D4A0E2AC1EF0BF03C
:101750001D50276E286A2850000AD8B4B2EF0BF04B
:10176000C1EF0BF02750000AD8B43EEF0BF0010A8E
:10177000D8B45AEF0BF0030AD8B483EF0BF0C1EFE3
:101780000BF00EBECDEF0BF00E5009E13C0E0D5CE0
:10179000D8A0CDEF0BF0CFEF0BF0D3EF0BF0000E96
:1017A0000E6E000E0D6E120040EF0CF017041810B4
:1017B000D8A4DDEF0BF0DFEF0BF059EF0CF01CBEFF
:1017C000EAEF0BF01C5008E11B04D8A0EAEF0BF085
:1017D000ECEF0BF059EF0CF00B4A0C2A010E1D6ECA
:1017E00059EF0CF01B501C10D8B4F9EF0BF0FBEFC5
:1017F0000BF004EF0CF017041810D8A402EF0CF053
:1018000004EF0CF006EF0CF0000E1D6E1ABE11EF87
:101810000CF01A5008E11904D8A011EF0CF013EFE6
:101820000CF059EF0CF0000E166E010E156E020E44
:101830001D6E59EF0CF01B501C10D8B422EF0CF0A9
:1018400024EF0CF02DEF0CF017041810D8A42BEF98
:101850000CF02DEF0CF02FEF0CF0000E1D6E1504A8
:101860001610D8A436EF0CF038EF0CF059EF0CF04E
:10187000000E166E000E156E0B4A0C2A59EF0CF076
:101880001D50276E286A2850000AD8B44AEF0CF081
:1018900059EF0CF02750000AD8B4D6EF0BF0010A2C
:1018A000D8B4F2EF0BF0030AD8B41BEF0CF059EFE9
:1018B0000CF00CBE65EF0CF00C5009E1180E0B5C3F
:1018C000D8A065EF0CF067EF0CF06BEF0CF0000E9A
:1018D0000C6E000E0B6E12001CBE77EF0CF01C504D
:1018E00008E11B04D8A077EF0CF079EF0CF098EF2B
:1018F0000CF007500810D8A480EF0CF082EF0CF029
:101900008EEF0CF0000E026E000E016E000E046EE3
:10191000000E036E000E066E000E056E010E07240B
:10192000276E000E0820286E010E2714076E086A25
:1019300007040810D8A49FEF0CF0A1EF0CF0EAEF19
:101940000CF011041210D8A4A8EF0CF0AAEF0CF0C0
:10195000EAEF0CF0014A022A02BEB8EF0CF0025086
:1019600009E1640E015CD8A0B8EF0CF0BAEF0CF0FE
:10197000C0EF0CF0000E026E000E016E034A042A46
:1019800004BECCEF0CF0045009E13C0E035CD8A07F
:10199000CCEF0CF0CEEF0CF0D4EF0CF0000E046E98
:1019A000000E036E054A062A06BEE0EF0CF0065054
:1019B00009E13C0E055CD8A0E0EF0CF0E2EF0CF082
:1019C000E6EF0CF0000E066E000E056E000E126EB5
:1019D000000E116E1200800E8EEC0FF0010E2E6EB6
:1019E000100E2F6E39EC10F0C00E8EEC0FF005C00B
:1019F00027F006C028F0000E2A6E0A0E296EB9ECF8
:101A00000DF02750300F5BEC0FF005C027F006C03B
:101A100028F0000E2A6E0A0E296E7CEC0EF027507C
:101A2000300F5BEC0FF03A0E5BEC0FF003C027F0C9
:101A300004C028F0000E2A6E0A0E296EB9EC0DF0D3
:101A40002750300F5BEC0FF003C027F004C028F0E4
:101A5000000E2A6E0A0E296E7CEC0EF02750300F15
:101A60005BEC0FF03A0E5BEC0FF001C027F002C008
:101A700028F0000E2A6E0A0E296EB9EC0DF02750E0
:101A8000300F5BEC0FF001C027F002C028F0000E11
:101A90002A6E0A0E296E7CEC0EF02750300F5BEC9C
:101AA0000FF01200800E8EEC0FF0120E2E6E100E44
:101AB0002F6E39EC10F0C00E8EEC0FF00BC027F03B
:101AC0000CC028F0000E2A6E0A0E296EB9EC0DF03B
:101AD0002750300F5BEC0FF00BC027F00CC028F044
:101AE000000E2A6E0A0E296E7CEC0EF02750300F85
:101AF0005BEC0FF03A0E5BEC0FF00DC027F00EC060
:101B000028F0000E2A6E0A0E296EB9EC0DF027504F
:101B1000300F5BEC0FF00DC027F00EC028F0000E68
:101B20002A6E0A0E296E7CEC0EF02750300F5BEC0B
:101B30000FF03A0E5BEC0FF00FC027F010C028F04A
:101B4000000E2A6E0A0E296EB9EC0DF02750300FE8
:101B50005BEC0FF00FC027F010C028F0000E2A6ECB
:101B60000A0E296E7CEC0EF02750300F5BEC0FF064
:101B70001200000E2C6E2ABEC2EF0DF0C0EF0DF069
:101B8000C8EF0DF0296C2A1ED8B02A2A010E2C6E3F
:101B900028BECFEF0DF0CDEF0DF0D5EF0DF0276C97
:101BA000281ED8B0282A010E2C1A000E2E6E000E08
:101BB0002D6E29502A10D8B4E0EF0DF0E2EF0DF0B1
:101BC0000AEF0EF0010E2B6EEAEF0DF0D8902936D9
:101BD0002A362B2A2AAEEFEF0DF0F1EF0DF0E6EFEB
:101BE0000DF0D8902D362E362950275C2A502858D3
:101BF000D8A0FDEF0DF0FFEF0DF004EF0EF029502F
:101C0000275E2A50285A2D80D8902A3229322B2E2E
:101C1000F1EF0DF02C50D8B410EF0EF012EF0EF0E3
:101C200016EF0EF02D6C2E1ED8B02E2A2DC027F0E8
:101C30002EC028F0120015EC10F01FC023F020C0B9
:101C400024F0F1EC0FF01FC025F020C026F0230493
:101C50002410D8A42EEF0EF030EF0EF036EF0EF079
:101C6000000E186E010E176E7BEF0EF02504261085
:101C7000D8A43DEF0EF03FEF0EF069EF0EF01B4AD7
:101C80001C2A1CBE4DEF0EF01C5009E1640E1B5CBB
:101C9000D8A04DEF0EF04FEF0EF07BEF0EF0194A8B
:101CA0001A2A1ABE5DEF0EF01A5009E1150E195CE2
:101CB000D8A05DEF0EF05FEF0EF07BEF0EF0000EA0
:101CC000166E010E156E000E1A6E000E196E7BEF69
:101CD0000EF0000E1C6E000E1B6E000E1A6E000E33
:101CE000196E000E186E000E176E000E166E000EA6
:101CF000156E7BEF0EF01200000E2C6E28BE85EFE5
:101D00000EF083EF0EF08BEF0EF0276C281ED8B08C
:101D1000282A010E2C6E2ABE92EF0EF090EF0EF0E4
:101D200096EF0EF0296C2A1ED8B02A2A29502A10C4
:101D3000D8B49DEF0EF09FEF0EF0C3EF0EF0010E42
:101D40002B6EA7EF0EF0D89029362A362B2A2AAE12
:101D5000ACEF0EF0AEEF0EF0A3EF0EF02950275CC3
:101D60002A502858D8A0B7EF0EF0B9EF0EF0BDEF0B
:101D70000EF02950275E2A50285AD8902A3229324C
:101D80002B2EAEEF0EF02C50D8B4C9EF0EF0CBEFE7
:101D90000EF0CFEF0EF0276C281ED8B0282A27C0EF
:101DA00027F028C028F0120014BEE0EF0EF0145007
:101DB00009E1640E135CD8A0E0EF0EF0E2EF0EF044
:101DC00022EF0FF0000E146E000E136E0F4A102A51
:101DD00010BEF4EF0EF0105009E13C0E0F5CD8A0DD
:101DE000F4EF0EF0F6EF0EF0FCEF0EF0000E106EBA
:101DF000000E0F6E0D4A0E2A0EBE08EF0FF00E50A9
:101E000009E13C0E0D5CD8A008EF0FF00AEF0FF0CF
:101E100010EF0FF0000E0E6E000E0D6E0B4A0C2A26
:101E20000CBE1CEF0FF00C5009E1180E0B5CD8A093
:101E30001CEF0FF01EEF0FF022EF0FF0000E0C6EF4
:101E4000000E0B6E1200276E27C029F0000E286EC0
:101E500027AE2DEF0FF02FEF0FF032EF0FF08B8A40
:101E600033EF0FF08B9A8BA838EF0FF03AEF0FF0AB
:101E70003EEF0FF0D880293641EF0FF0295029248A
:101E8000296E8B8600F000F000F000F000F000F00A
:101E900000F000F000F000F000F000F08B96D89019
:101EA0002736282A070E286458EF0FF05AEF0FF054
:101EB00028EF0FF012002D6E110E2C6E3A0EE82E48
:101EC000FED72C2EFCD700D0800E2A6E120EACEC62
:101ED00010F0040E2C6E3E0EE82EFED72C2EFCD7F2
:101EE0002DC02AF0130EACEC10F0040E2C6E3E0E3A
:101EF000E82EFED72C2EFCD7C00E2A6E120EACECAC
:101F000010F0040E2C6E3E0EE82EFED72C2EFCD7C1
:101F1000000E2A6E120EACEC10F012002D6E110E97
:101F20002C6E3A0EE82EFED72C2EFCD700D0000ED9
:101F30002A6E120EACEC10F0040E2C6E3E0EE82E43
:101F4000FED72C2EFCD72DC02AF0130EACEC10F0CF
:101F5000040E2C6E3E0EE82EFED72C2EFCD7400E23
:101F60002A6E120EACEC10F0040E2C6E3E0EE82E13
:101F7000FED72C2EFCD7000E2A6E120EACEC10F001
:101F80001200B9EC10F0979C8E9C110E2E6E3A0E3A
:101F9000E82EFED72E2EFCD700D08E8C000E9FECA4
:101FA00010F0010E9FEC10F0000E2A6E120EACEC39
:101FB00010F0310E2E6EB20EE82EFED72E2EFCD76C
:101FC00000D0320E8EEC0FF03C0E8EEC0FF00C0EAB
:101FD0008EEC0FF0010E8EEC0FF0060E8EEC0FF073
:101FE000120034C035F0000E81B0010E346E000EC8
:101FF000226E000E216E34503518D8A402EF10F076
:1020000004EF10F010EF10F03550D8A40AEF10F0E4
:102010000CEF10F010EF10F0000E226E010E216E8A
:1020200021C01FF022C020F0120036C037F0000E91
:1020300080BA010E366E000E226E000E216E3650F2
:102040003718D8A426EF10F028EF10F034EF10F076
:102050003750D8A42EEF10F030EF10F034EF10F01E
:10206000000E226E010E216E21C01FF022C020F052
:10207000120047EF10F02EC0F6FF2FC0F7FF000E42
:10208000F86E0800F5505BEC0FF02E4A2F2A2EC098
:10209000F6FF2FC0F7FF000EF86E0800F55000099C
:1020A000D8A455EF10F057EF10F03BEF10F01200EE
:1020B0000600F2A45EEF10F060EF10F074EF10F085
:1020C000F2AA65EF10F067EF10F074EF10F0F294E1
:1020D000000ED76E38C0D6FF134A142A000E126EB7
:1020E000010E116E1BEC0EF03B921100980EF66E75
:1020F000210EF76E000EF86E00EE34F010EE04F0D4
:102100000900F5CFEEFFE550E150FAE100EE01F0F5
:102110001E0EEE6AE806FDE13B903B92000108EFDF
:102120000AF0F28EF28A810ED56EFD0ED76E8F0EFA
:10213000D66ED6CF38F0D7CF39F03A6A12002A6E71
:102140008994400E23EC0FF02A5023EC0FF0000E80
:1021500023EC0FF0898412002B6E8994400E23EC3F
:102160000FF02B5023EC0FF02A5023EC0FF0898452
:10217000120092949488949A949689848B888B9A6E
:102180008B961200470ED36E0F0E9B6E1200928A32
:0C21900093800F0EC16E120001010101CE
:020000040020DA
:08000000FFFFFFFFFFFFFFFF00
:020000040030CA
:0E000000FF06191EF38381FFFFC0FFE0FF40E3
:00000001FF
