:020000040000FA
:0400000007EF00F016
:0A0008003A8260ED10F07CEF10F07A
:101000000020202053544F50205741544348202063
:10101000200020204E4F524D414C20434C4F434B1B
:10102000202000204D4F44494649455320484F5504
:101030005220004D4F444946494553204D494E5595
:1010400054450000C2EC10F0BAEC10F0CCEC10F0FB
:10105000C7EC10F0C9EC0FF0000E206E000E1F6EF2
:10106000C9EF08F0000E026E000E016E000E046E55
:10107000000E036E000E066E000E056EDCEC0EF028
:101080005AEC0DF019041A10D8A449EF08F04BEFF0
:1010900008F0C9EF08F0000E1A6E000E196E010E6E
:1010A000206E000E0C6E000E0B6E000E166E000E03
:1010B000156EC9EF08F01CEC0AF0DCEC0BF019041B
:1010C0001A10D8A466EF08F068EF08F0C9EF08F02E
:1010D000000E1A6E000E196E020E206E000E0C6EBF
:1010E000000E0B6E000E166E000E156EC9EF08F0A6
:1010F00084EC09F048EC0BF019041A10D8A483EF23
:1011000008F085EF08F0C9EF08F0000E1A6E000E27
:10111000196E030E206E000E0C6E000E0B6E000E8C
:10112000166E000E156EC9EF08F0ECEC08F0B4EC8A
:101130000AF019041A10D8A4A0EF08F0A2EF08F0E2
:10114000C9EF08F0000E1A6E000E196E040E206E24
:10115000000E086E000E076E000E166E000E156E65
:10116000C9EF08F0DCEC0EF070EC0CF0F3EC0CF0D6
:1011700019041A10D8A4BFEF08F0C1EF08F0C9EFA6
:1011800008F0000E1A6E000E196E000E206EC9EFE8
:1011900008F02050346E356A3550000AD8B4D3EFC9
:1011A00008F0C9EF08F03450000AD8B432EF08F064
:1011B000010AD8B45BEF08F0030AD8B478EF08F05E
:1011C000010AD8B495EF08F0070AD8B4B2EF08F0D6
:1011D000C9EF08F007EF00F058EF09F019501A10A6
:1011E000D8A4F5EF08F0F7EF08F071EF09F01EBE94
:1011F00002EF09F01E5008E11D04D8A002EF09F02B
:1012000004EF09F071EF09F0114A122A010E1F6E66
:1012100071EF09F01D501E10D8B411EF09F013EF53
:1012200009F01CEF09F019041A10D8A41AEF09F0FC
:101230001CEF09F01EEF09F0000E1F6E1CBE29EF17
:1012400009F01C5008E11B04D8A029EF09F02BEF8E
:1012500009F071EF09F0000E186E010E176E020E04
:101260001F6E71EF09F01D501E10D8B43AEF09F04F
:101270003CEF09F045EF09F019041A10D8A443EF28
:1012800009F045EF09F047EF09F0000E1F6E170453
:101290001810D8A44EEF09F050EF09F071EF09F0E3
:1012A000000E186E000E176E114A122A71EF09F027
:1012B0001F50296E2A6A2A50000AD8B462EF09F03A
:1012C00071EF09F02950000AD8B4EEEF08F0010AD6
:1012D000D8B40AEF09F0030AD8B433EF09F071EF7C
:1012E00009F012BE7DEF09F0125009E13C0E115CCD
:1012F000D8A07DEF09F07FEF09F083EF09F0000E31
:10130000126E000E116E1200F0EF09F019501A1053
:10131000D8A48DEF09F08FEF09F009EF0AF01EBE97
:101320009AEF09F01E5008E11D04D8A09AEF09F0C9
:101330009CEF09F009EF0AF00F4A102A010E1F6E08
:1013400009EF0AF01D501E10D8B4A9EF09F0ABEF59
:1013500009F0B4EF09F019041A10D8A4B2EF09F09B
:10136000B4EF09F0B6EF09F0000E1F6E1CBEC1EF1E
:1013700009F01C5008E11B04D8A0C1EF09F0C3EF2D
:1013800009F009EF0AF0000E186E010E176E020E3A
:101390001F6E09EF0AF01D501E10D8B4D2EF09F0ED
:1013A000D4EF09F0DDEF09F019041A10D8A4DBEF2F
:1013B00009F0DDEF09F0DFEF09F0000E1F6E1704F2
:1013C0001810D8A4E6EF09F0E8EF09F009EF0AF0E9
:1013D000000E186E000E176E0F4A102A09EF0AF061
:1013E0001F50296E2A6A2A50000AD8B4FAEF09F071
:1013F00009EF0AF02950000AD8B486EF09F0010A73
:10140000D8B4A2EF09F0030AD8B4CBEF09F009EF82
:101410000AF010BE15EF0AF0105009E13C0E0F5C07
:10142000D8A015EF0AF017EF0AF01BEF0AF0000E34
:10143000106E000E0F6E120088EF0AF019501A108D
:10144000D8A425EF0AF027EF0AF0A1EF0AF01EBE9C
:1014500032EF0AF01E5008E11D04D8A032EF0AF066
:1014600034EF0AF0A1EF0AF00D4A0E2A010E1F6EAA
:10147000A1EF0AF01D501E10D8B441EF0AF043EF5F
:101480000AF04CEF0AF019041A10D8A44AEF0AF037
:101490004CEF0AF04EEF0AF0000E1F6E1CBE59EF23
:1014A0000AF01C5008E11B04D8A059EF0AF05BEFCA
:1014B0000AF0A1EF0AF0000E186E010E176E020E70
:1014C0001F6EA1EF0AF01D501E10D8B46AEF0AF08B
:1014D0006CEF0AF075EF0AF019041A10D8A473EF34
:1014E0000AF075EF0AF077EF0AF0000E1F6E17048E
:1014F0001810D8A47EEF0AF080EF0AF0A1EF0AF0EE
:10150000000E186E000E176E0D4A0E2AA1EF0AF09B
:101510001F50296E2A6A2A50000AD8B492EF0AF0A6
:10152000A1EF0AF02950000AD8B41EEF0AF0010A10
:10153000D8B43AEF0AF0030AD8B463EF0AF0A1EF87
:101540000AF00EBEADEF0AF00E5009E1180E0D5C68
:10155000D8A0ADEF0AF0AFEF0AF0B3EF0AF0000E3B
:101560000E6E000E0D6E1200800E96EC0FF0330E14
:10157000306E100E316E41EC10F0C00E96EC0FF094
:101580000DC029F00EC02AF0000E2C6E0A0E2B6E34
:10159000C1EC0DF02950300F63EC0FF00DC029F0B5
:1015A0000EC02AF0000E2C6E0A0E2B6E84EC0EF08C
:1015B0002950300F63EC0FF03A0E63EC0FF00FC0C0
:1015C00029F010C02AF0000E2C6E0A0E2B6EC1EC12
:1015D0000DF02950300F63EC0FF00FC029F010C050
:1015E0002AF0000E2C6E0A0E2B6E84EC0EF02950A1
:1015F000300F63EC0FF03A0E63EC0FF016BE0AEFFB
:101600000BF0165009E1050E155CD8A00AEF0BF09F
:101610000CEF0BF047EF0BF0000E166E000E156E80
:101620000B500C10D8A417EF0BF019EF0BF021EFB3
:101630000BF0200E63EC0FF0200E63EC0FF03DEF8B
:101640000BF011C029F012C02AF0000E2C6E0A0E09
:101650002B6EC1EC0DF02950300F63EC0FF011C070
:1016600029F012C02AF0000E2C6E0A0E2B6E84ECAC
:101670000EF02950300F63EC0FF0010E0B24326E88
:10168000000E0C20336E010E32140B6E0C6A120029
:10169000800E96EC0FF0330E306E100E316E41EC72
:1016A00010F0C00E96EC0FF00DC029F00EC02AF01D
:1016B000000E2C6E0A0E2B6EC1EC0DF02950300F6F
:1016C00063EC0FF00DC029F00EC02AF0000E2C6E56
:1016D0000A0E2B6E84EC0EF02950300F63EC0FF0E5
:1016E0003A0E63EC0FF016BE7FEF0BF0165009E1D7
:1016F000050E155CD8A07FEF0BF081EF0BF0BCEF6F
:101700000BF0000E166E000E156E0B500C10D8A4C8
:101710008CEF0BF08EEF0BF096EF0BF0200E63ECDE
:101720000FF0200E63EC0FF0B2EF0BF00FC029F0BA
:1017300010C02AF0000E2C6E0A0E2B6EC1EC0DF0BC
:101740002950300F63EC0FF00FC029F010C02AF0C1
:10175000000E2C6E0A0E2B6E84EC0EF02950300F0A
:1017600063EC0FF0010E0B24326E000E0C20336E72
:10177000010E32140B6E0C6A3A0E63EC0FF011C0BE
:1017800029F012C02AF0000E2C6E0A0E2B6EC1EC4E
:101790000DF02950300F63EC0FF011C029F012C08A
:1017A0002AF0000E2C6E0A0E2B6E84EC0EF02950DF
:1017B000300F63EC0FF01200800E96EC0FF0230E4A
:1017C000306E100E316E41EC10F0C00E96EC0FF042
:1017D00016BEF4EF0BF0165009E1050E155CD8A00B
:1017E000F4EF0BF0F6EF0BF031EF0CF0000E166E8D
:1017F000000E156E0B500C10D8A401EF0CF003EF87
:101800000CF00BEF0CF0200E63EC0FF0200E63ECED
:101810000FF027EF0CF00DC029F00EC02AF0000EDB
:101820002C6E0A0E2B6EC1EC0DF02950300F63ECBC
:101830000FF00DC029F00EC02AF0000E2C6E0A0E1B
:101840002B6E84EC0EF02950300F63EC0FF0010E7C
:101850000B24326E000E0C20336E010E32140B6E10
:101860000C6A3A0E63EC0FF00FC029F010C02AF09A
:10187000000E2C6E0A0E2B6EC1EC0DF02950300FAD
:1018800063EC0FF00FC029F010C02AF0000E2C6E90
:101890000A0E2B6E84EC0EF02950300F63EC0FF023
:1018A0003A0E63EC0FF011C029F012C02AF0000EBE
:1018B0002C6E0A0E2B6EC1EC0DF02950300F63EC2C
:1018C0000FF011C029F012C02AF0000E2C6E0A0E83
:1018D0002B6E84EC0EF02950300F63EC0FF01200E9
:1018E0001EBE7BEF0CF01E5008E11D04D8A07BEF5C
:1018F0000CF07DEF0CF0A0EF0CF007500810D8A40E
:1019000084EF0CF086EF0CF092EF0CF0000E026EFC
:10191000000E016E000E046E000E036E000E066EC9
:10192000000E056E010E0724296E000E08202A6E97
:10193000010E2914076E086A000E146E000E136E55
:1019400007040810D8A4A7EF0CF0A9EF0CF0F2EFF1
:101950000CF013041410D8A4B0EF0CF0B2EF0CF09C
:10196000F2EF0CF0014A022A02BEC0EF0CF0025066
:1019700009E1640E015CD8A0C0EF0CF0C2EF0CF0DE
:10198000C8EF0CF0000E026E000E016E034A042A2E
:1019900004BED4EF0CF0045009E13C0E035CD8A067
:1019A000D4EF0CF0D6EF0CF0DCEF0CF0000E046E70
:1019B000000E036E054A062A06BEE8EF0CF006503C
:1019C00009E13C0E055CD8A0E8EF0CF0EAEF0CF062
:1019D000EEEF0CF0000E066E000E056E000E146E9B
:1019E000000E136E1200800E96EC0FF0010E306E9A
:1019F000100E316E41EC10F0C00E96EC0FF005C0E9
:101A000029F006C02AF0000E2C6E0A0E2B6EC1ECD7
:101A10000DF02950300F63EC0FF005C029F006C01F
:101A20002AF0000E2C6E0A0E2B6E84EC0EF029505C
:101A3000300F63EC0FF03A0E63EC0FF003C029F0A7
:101A400004C02AF0000E2C6E0A0E2B6EC1EC0DF0B5
:101A50002950300F63EC0FF003C029F004C02AF0C6
:101A6000000E2C6E0A0E2B6E84EC0EF02950300FF7
:101A700063EC0FF03A0E63EC0FF001C029F002C0E6
:101A80002AF0000E2C6E0A0E2B6EC1EC0DF02950C0
:101A9000300F63EC0FF001C029F002C02AF0000EF5
:101AA0002C6E0A0E2B6E84EC0EF02950300F63EC76
:101AB0000FF01200800E96EC0FF0120E306E100E2A
:101AC000316E41EC10F0C00E96EC0FF00DC029F015
:101AD0000EC02AF0000E2C6E0A0E2B6EC1EC0DF01B
:101AE0002950300F63EC0FF00DC029F00EC02AF022
:101AF000000E2C6E0A0E2B6E84EC0EF02950300F67
:101B000063EC0FF03A0E63EC0FF00FC029F010C039
:101B10002AF0000E2C6E0A0E2B6EC1EC0DF029502F
:101B2000300F63EC0FF00FC029F010C02AF0000E48
:101B30002C6E0A0E2B6E84EC0EF02950300F63ECE5
:101B40000FF03A0E63EC0FF011C029F012C02AF02A
:101B5000000E2C6E0A0E2B6EC1EC0DF02950300FCA
:101B600063EC0FF011C029F012C02AF0000E2C6EA9
:101B70000A0E2B6E84EC0EF02950300F63EC0FF040
:101B80001200000E2E6E2CBECAEF0DF0C8EF0DF045
:101B9000D0EF0DF02B6C2C1ED8B02C2A010E2E6E1F
:101BA0002ABED7EF0DF0D5EF0DF0DDEF0DF0296C6B
:101BB0002A1ED8B02A2A010E2E1A000E306E000EF0
:101BC0002F6E2B502C10D8B4E8EF0DF0EAEF0DF08B
:101BD00012EF0EF0010E2D6EF2EF0DF0D8902B36B5
:101BE0002C362D2A2CAEF7EF0DF0F9EF0DF0EEEFBD
:101BF0000DF0D8902F3630362B50295C2C502A58B7
:101C0000D8A005EF0EF007EF0EF00CEF0EF02B5002
:101C1000295E2C502A5A2F80D8902C322B322D2E10
:101C2000F9EF0DF02E50D8B418EF0EF01AEF0EF0B9
:101C30001EEF0EF02F6C301ED8B0302A2FC029F0C6
:101C400030C02AF012001DEC10F021C025F022C097
:101C500026F0F9EC0FF021C027F022C028F025046F
:101C60002610D8A436EF0EF038EF0EF03EEF0EF04F
:101C7000000E1A6E010E196E83EF0EF02704281065
:101C8000D8A445EF0EF047EF0EF071EF0EF01D4AAD
:101C90001E2A1EBE55EF0EF01E5009E1640E1D5C9B
:101CA000D8A055EF0EF057EF0EF083EF0EF01B4A61
:101CB0001C2A1CBE65EF0EF01C5009E1150E1B5CC2
:101CC000D8A065EF0EF067EF0EF083EF0EF0000E78
:101CD000186E010E176E000E1C6E000E1B6E83EF49
:101CE0000EF0000E1E6E000E1D6E000E1C6E000E1D
:101CF0001B6E000E1A6E000E196E000E186E000E8E
:101D0000176E83EF0EF01200000E2E6E2ABE8DEFBE
:101D10000EF08BEF0EF093EF0EF0296C2A1ED8B068
:101D20002A2A010E2E6E2CBE9AEF0EF098EF0EF0BE
:101D30009EEF0EF02B6C2C1ED8B02C2A2B502C10A2
:101D4000D8B4A5EF0EF0A7EF0EF0CBEF0EF0010E1A
:101D50002D6EAFEF0EF0D8902B362C362D2A2CAEF0
:101D6000B4EF0EF0B6EF0EF0ABEF0EF02B50295C97
:101D70002C502A58D8A0BFEF0EF0C1EF0EF0C5EFDF
:101D80000EF02B50295E2C502A5AD8902C322B3230
:101D90002D2EB6EF0EF02E50D8B4D1EF0EF0D3EFBB
:101DA0000EF0D7EF0EF0296C2A1ED8B02A2A29C0CF
:101DB00029F02AC02AF0120016BEE8EF0EF01650E5
:101DC00009E1640E155CD8A0E8EF0EF0EAEF0EF022
:101DD0002AEF0FF0000E166E000E156E114A122A31
:101DE00012BEFCEF0EF0125009E13C0E115CD8A0BF
:101DF000FCEF0EF0FEEF0EF004EF0FF0000E126E8F
:101E0000000E116E0F4A102A10BE10EF0FF0105086
:101E100009E13C0E0F5CD8A010EF0FF012EF0FF0AD
:101E200018EF0FF0000E106E000E0F6E0D4A0E2A06
:101E30000EBE24EF0FF00E5009E1180E0D5CD8A075
:101E400024EF0FF026EF0FF02AEF0FF0000E0E6ECA
:101E5000000E0D6E1200296E29C02BF0000E2A6EA6
:101E600029AE35EF0FF037EF0FF03AEF0FF08B8A16
:101E70003BEF0FF08B9A8BA840EF0FF042EF0FF083
:101E800046EF0FF0D8802B3649EF0FF02B502B2464
:101E90002B6E8B8600F000F000F000F000F000F0F8
:101EA00000F000F000F000F000F000F08B96D89009
:101EB00029362A2A070E2A6460EF0FF062EF0FF02E
:101EC00030EF0FF012002F6E110E2E6E3A0EE82E2C
:101ED000FED72E2EFCD700D0800E2C6E120EA4EC56
:101EE00010F0040E2E6E3E0EE82EFED72E2EFCD7DE
:101EF0002FC02CF0130EA4EC10F0040E2E6E3E0E2C
:101F0000E82EFED72E2EFCD7C00E2C6E120EA4EC9F
:101F100010F0040E2E6E3E0EE82EFED72E2EFCD7AD
:101F2000000E2C6E120EA4EC10F012002F6E110E8B
:101F30002E6E3A0EE82EFED72E2EFCD700D0000EC5
:101F40002C6E120EA4EC10F0040E2E6E3E0EE82E37
:101F5000FED72E2EFCD72FC02CF0130EA4EC10F0C1
:101F6000040E2E6E3E0EE82EFED72E2EFCD7400E0F
:101F70002C6E120EA4EC10F0040E2E6E3E0EE82E07
:101F8000FED72E2EFCD7000E2C6E120EA4EC10F0F5
:101F90001200B1EC10F0979C8E9C110E306E3A0E30
:101FA000E82EFED7302EFCD700D08E8C000E97EC9A
:101FB00010F0010E97EC10F0000E2C6E120EA4EC37
:101FC00010F0310E306EB20EE82EFED7302EFCD758
:101FD00000D0320E96EC0FF03C0E96EC0FF00C0E8B
:101FE00096EC0FF0010E96EC0FF0060E96EC0FF04B
:101FF000120036C037F0000E81B0010E366E000EB2
:10200000246E000E236E36503718D8A40AEF10F055
:102010000CEF10F018EF10F03750D8A412EF10F0BA
:1020200014EF10F018EF10F0000E246E010E236E66
:1020300023C021F024C022F0120038C039F0000E75
:1020400080BA010E386E000E246E000E236E3850DA
:102050003918D8A42EEF10F030EF10F03CEF10F04C
:102060003950D8A436EF10F038EF10F03CEF10F0F4
:10207000000E246E010E236E23C021F024C022F036
:1020800012004FEF10F030C0F6FF31C0F7FF000E26
:10209000F86E0800F55063EC0FF0304A312A30C07A
:1020A000F6FF31C0F7FF000EF86E0800F55000098A
:1020B000D8A45DEF10F05FEF10F043EF10F01200C6
:1020C0000600F2A466EF10F068EF10F07AEF10F05F
:1020D000F2AA6DEF10F06FEF10F07AEF10F0F294BB
:1020E000640ED66E154A162A000E146E010E136E7B
:1020F00023EC0EF03A921100A20EF66E210EF76E4E
:10210000000EF86E00EE36F010EE04F00900F5CF88
:10211000EEFFE550E150FAE100EE01F0200EEE6A2C
:10212000E806FDE13A903A92000122EF08F02C6EA9
:102130008994400E2BEC0FF02C502BEC0FF0000E7E
:102140002BEC0FF0898412002D6E8994400E2BEC3D
:102150000FF02D502BEC0FF02C502BEC0FF089844E
:10216000120092949488949A949689848B888B9A7E
:102170008B961200F28EF28AF294C60ED56E640E21
:10218000D66E1200770ED36E0F0E9B6E1200000EED
:10219000956E000E8C6E1200928A93800F0EC16EA7
:0621A00012000101010123
:020000040020DA
:08000000FFFFFFFFFFFFFFFF00
:020000040030CA
:0E000000FF06191EF38381FFFFC0FFE0FF40E3
:00000001FF
