:020000040000FA
:0400000007EF00F016
:0A0008003B8226ED10F044EF10F0EB
:101000000020202053544F50205741544348202063
:10101000200020204E4F524D414C20434C4F434B1B
:10102000202000204D4F44494649455320484F5504
:101030005220004D4F444946494553204D494E5595
:1010400054450000E6EF09F0800E8CEC0FF0230E03
:101050002E6E100E2F6E07EC10F0C00E8CEC0FF001
:1010600013C027F014C028F0000E2A6E0A0E296E55
:101070007AEC0EF027502810D8A441EF08F043EF87
:1010800008F07AEF08F009500A10D8A44AEF08F0E7
:101090004CEF08F054EF08F0200E59EC0FF0200E42
:1010A00059EC0FF070EF08F00BC027F00CC028F0DF
:1010B000000E2A6E0A0E296EB7EC0DF02750300F85
:1010C00059EC0FF00BC027F00CC028F0000E2A6E70
:1010D0000A0E296E7AEC0EF02750300F59EC0FF003
:1010E000010E0924306E000E0A20316E010E3014FC
:1010F000096E0A6A3A0E59EC0FF00DC027F00EC0C7
:1011000028F0000E2A6E0A0E296EB7EC0DF027505B
:10111000300F59EC0FF00DC027F00EC028F0000E74
:101120002A6E0A0E296E7AEC0EF02750300F59EC19
:101130000FF03A0E59EC0FF00FC027F010C028F056
:10114000000E2A6E0A0E296EB7EC0DF02750300FF4
:1011500059EC0FF00FC027F010C028F0000E2A6ED7
:101160000A0E296E7AEC0EF02750300F59EC0FF072
:1011700007EF0AF0800E8CEC0FF0330E2E6E100E7F
:101180002F6E07EC10F0C00E8CEC0FF00BC027F0A8
:101190000CC028F0000E2A6E0A0E296EB7EC0DF076
:1011A0002750300F59EC0FF00BC027F00CC028F07F
:1011B000000E2A6E0A0E296E7AEC0EF02750300FC0
:1011C00059EC0FF03A0E59EC0FF013C027F014C091
:1011D00028F0000E2A6E0A0E296E7AEC0EF02750C7
:1011E0002810D8A4F6EF08F0F8EF08F02FEF09F078
:1011F00009500A10D8A4FFEF08F001EF09F009EF39
:1012000009F0200E59EC0FF0200E59EC0FF025EFED
:1012100009F00DC027F00EC028F0000E2A6E0A0E4D
:10122000296EB7EC0DF02750300F59EC0FF00DC0C0
:1012300027F00EC028F0000E2A6E0A0E296E7AECF6
:101240000EF02750300F59EC0FF0010E0924306ECC
:10125000000E0A20316E010E3014096E0A6A3A0E31
:1012600059EC0FF00FC027F010C028F0000E2A6EC6
:101270000A0E296EB7EC0DF02750300F59EC0FF025
:101280000FC027F010C028F0000E2A6E0A0E296E3B
:101290007AEC0EF02750300F59EC0FF007EF0AF000
:1012A000800E8CEC0FF0330E2E6E100E2F6E07ECAE
:1012B00010F0C00E8CEC0FF00BC027F00CC028F023
:1012C000000E2A6E0A0E296EB7EC0DF02750300F73
:1012D00059EC0FF00BC027F00CC028F0000E2A6E5E
:1012E0000A0E296E7AEC0EF02750300F59EC0FF0F1
:1012F0003A0E59EC0FF00DC027F00EC028F0000E8A
:101300002A6E0A0E296EB7EC0DF02750300F59ECFB
:101310000FF00DC027F00EC028F0000E2A6E0A0E46
:10132000296E7AEC0EF02750300F59EC0FF03A0E80
:1013300059EC0FF013C027F014C028F0000E2A6EED
:101340000A0E296E7AEC0EF027502810D8A4ABEFC5
:1013500009F0ADEF09F007EF0AF009500A10D8A420
:10136000B4EF09F0B6EF09F0BEEF09F0200E59EC2A
:101370000FF0200E59EC0FF0DAEF09F00FC027F054
:1013800010C028F0000E2A6E0A0E296EB7EC0DF080
:101390002750300F59EC0FF00FC027F010C028F085
:1013A000000E2A6E0A0E296E7AEC0EF02750300FCE
:1013B00059EC0FF0010E0924306E000E0A20316E38
:1013C000010E3014096E0A6A07EF0AF01E50306EE3
:1013D000316A3150000AD8B4F0EF09F007EF0AF093
:1013E0003050000AD8B407EF0AF0010AD8B424EF4D
:1013F00008F0030AD8B4BAEF08F0010AD8B450EFE5
:1014000009F0070AD8B407EF0AF007EF0AF0120054
:101410007AEC10F05FEC10F07FEC10F0000E1E6E16
:10142000000E1D6E7FEF0AF0D2EC0EF050EC0DF0C6
:1014300017041810D8A41FEF0AF021EF0AF0A0EF4C
:101440000AF0000E186E000E176E010E1E6EA0EF51
:101450000AF0D2EC0BF022EC08F017041810D8A414
:1014600034EF0AF036EF0AF0A0EF0AF0000E186E23
:10147000000E176E020E1E6EA0EF0AF03AEC0BF093
:1014800022EC08F017041810D8A449EF0AF04BEF2B
:101490000AF0A0EF0AF0000E186E000E176E030E91
:1014A0001E6EA0EF0AF0A2EC0AF022EC08F017047E
:1014B0001810D8A45EEF0AF060EF0AF0A0EF0AF06F
:1014C000000E186E000E176E040E1E6EA0EF0AF0CE
:1014D000D2EC0EF06AEC0CF0E9EC0CF017041810EA
:1014E000D8A475EF0AF077EF0AF0A0EF0AF0000E2B
:1014F000186E000E176E000E1E6EA0EF0AF01E5042
:10150000326E336A3350000AD8B489EF0AF0A0EF84
:101510000AF03250000AD8B414EF0AF0010AD8B425
:1015200029EF0AF0030AD8B43EEF0AF0010AD8B452
:1015300053EF0AF0070AD8B468EF0AF0A0EF0AF0F8
:1015400007EF00F00EEF0BF017041810D8A4ABEF64
:101550000AF0ADEF0AF027EF0BF01CBEB8EF0AF06F
:101560001C5008E11B04D8A0B8EF0AF0BAEF0AF04B
:1015700027EF0BF00F4A102A010E1D6E27EF0BF01C
:101580001B501C10D8B4C7EF0AF0C9EF0AF0D2EF15
:101590000AF017041810D8A4D0EF0AF0D2EF0AF01E
:1015A000D4EF0AF0000E1D6E1ABEDFEF0AF01A50DB
:1015B00008E11904D8A0DFEF0AF0E1EF0AF027EF05
:1015C0000BF0000E166E010E156E020E1D6E27EF4B
:1015D0000BF01B501C10D8B4F0EF0AF0F2EF0AF039
:1015E000FBEF0AF017041810D8A4F9EF0AF0FBEF8C
:1015F0000AF0FDEF0AF0000E1D6E15041610D8A4B7
:1016000004EF0BF006EF0BF027EF0BF0000E166E59
:10161000000E156E0F4A102A27EF0BF01D50276E93
:10162000286A2850000AD8B418EF0BF027EF0BF007
:101630002750000AD8B4A4EF0AF0010AD8B4C0EFCA
:101640000AF0030AD8B4E9EF0AF027EF0BF010BE56
:1016500033EF0BF0105009E13C0E0F5CD8A033EFD4
:101660000BF035EF0BF039EF0BF0000E106E000EA3
:101670000F6E1200A6EF0BF017041810D8A443EF5A
:101680000BF045EF0BF0BFEF0BF01CBE50EF0BF073
:101690001C5008E11B04D8A050EF0BF052EF0BF0E8
:1016A000BFEF0BF00D4A0E2A010E1D6EBFEF0BF0BF
:1016B0001B501C10D8B45FEF0BF061EF0BF06AEF1A
:1016C0000BF017041810D8A468EF0BF06AEF0BF0BA
:1016D0006CEF0BF0000E1D6E1ABE77EF0BF01A5078
:1016E00008E11904D8A077EF0BF079EF0BF0BFEF0A
:1016F0000BF0000E166E010E156E020E1D6EBFEF82
:101700000BF01B501C10D8B488EF0BF08AEF0BF0D5
:1017100093EF0BF017041810D8A491EF0BF093EF90
:101720000BF095EF0BF0000E1D6E15041610D8A4EB
:101730009CEF0BF09EEF0BF0BFEF0BF0000E166E60
:10174000000E156E0D4A0E2ABFEF0BF01D50276ECE
:10175000286A2850000AD8B4B0EF0BF0BFEF0BF0A6
:101760002750000AD8B43CEF0BF0010AD8B458EF68
:101770000BF0030AD8B481EF0BF0BFEF0BF00EBEF5
:10178000CBEF0BF00E5009E13C0E0D5CD8A0CBEF77
:101790000BF0CDEF0BF0D1EF0BF0000E0E6E000E44
:1017A0000D6E12003EEF0CF017041810D8A4DBEFFA
:1017B0000BF0DDEF0BF057EF0CF01CBEE8EF0BF079
:1017C0001C5008E11B04D8A0E8EF0BF0EAEF0BF087
:1017D00057EF0CF00B4A0C2A010E1D6E57EF0CF060
:1017E0001B501C10D8B4F7EF0BF0F9EF0BF002EF21
:1017F0000CF017041810D8A400EF0CF002EF0CF056
:1018000004EF0CF0000E1D6E1ABE0FEF0CF01A5014
:1018100008E11904D8A00FEF0CF011EF0CF057EF0E
:101820000CF0000E166E010E156E020E1D6E57EFB7
:101830000CF01B501C10D8B420EF0CF022EF0CF071
:101840002BEF0CF017041810D8A429EF0CF02BEF95
:101850000CF02DEF0CF0000E1D6E15041610D8A420
:1018600034EF0CF036EF0CF057EF0CF0000E166E64
:10187000000E156E0B4A0C2A57EF0CF01D50276E08
:10188000286A2850000AD8B448EF0CF057EF0CF043
:101890002750000AD8B4D4EF0BF0010AD8B4F0EF07
:1018A0000BF0030AD8B419EF0CF057EF0CF00CBE94
:1018B00063EF0CF00C5009E1180E0B5CD8A063EF3D
:1018C0000CF065EF0CF069EF0CF0000E0C6E000EE2
:1018D0000B6E12001CBE75EF0CF01C5008E11B04CF
:1018E000D8A075EF0CF077EF0CF096EF0CF00750E6
:1018F0000810D8A47EEF0CF080EF0CF08CEF0CF009
:10190000000E026E000E016E000E046E000E036EDD
:10191000000E066E000E056E010E0724276E000EE7
:101920000820286E010E2714076E086A07040810A5
:10193000D8A49DEF0CF09FEF0CF0E8EF0CF0110431
:101940001210D8A4A6EF0CF0A8EF0CF0E8EF0CF002
:10195000014A022A02BEB6EF0CF0025009E1640E01
:10196000015CD8A0B6EF0CF0B8EF0CF0BEEF0CF0B5
:10197000000E026E000E016E034A042A04BECAEF76
:101980000CF0045009E13C0E035CD8A0CAEF0CF047
:10199000CCEF0CF0D2EF0CF0000E046E000E036ED4
:1019A000054A062A06BEDEEF0CF0065009E13C0EA1
:1019B000055CD8A0DEEF0CF0E0EF0CF0E4EF0CF0EB
:1019C000000E066E000E056E000E126E000E116EF9
:1019D0001200800E8CEC0FF0010E2E6E100E2F6E8A
:1019E00007EC10F0C00E8CEC0FF005C027F006C01D
:1019F00028F0000E2A6E0A0E296EB7EC0DF0275063
:101A0000300F59EC0FF005C027F006C028F0000E8B
:101A10002A6E0A0E296E7AEC0EF02750300F59EC20
:101A20000FF03A0E59EC0FF003C027F004C028F075
:101A3000000E2A6E0A0E296EB7EC0DF02750300FFB
:101A400059EC0FF003C027F004C028F0000E2A6EF6
:101A50000A0E296E7AEC0EF02750300F59EC0FF079
:101A60003A0E59EC0FF001C027F002C028F0000E2A
:101A70002A6E0A0E296EB7EC0DF02750300F59EC84
:101A80000FF001C027F002C028F0000E2A6E0A0EE7
:101A9000296E7AEC0EF02750300F59EC0FF012003F
:101AA000800E8CEC0FF0120E2E6E100E2F6E07ECC7
:101AB00010F0C00E8CEC0FF00BC027F00CC028F01B
:101AC000000E2A6E0A0E296EB7EC0DF02750300F6B
:101AD00059EC0FF00BC027F00CC028F0000E2A6E56
:101AE0000A0E296E7AEC0EF02750300F59EC0FF0E9
:101AF0003A0E59EC0FF00DC027F00EC028F0000E82
:101B00002A6E0A0E296EB7EC0DF02750300F59ECF3
:101B10000FF00DC027F00EC028F0000E2A6E0A0E3E
:101B2000296E7AEC0EF02750300F59EC0FF03A0E78
:101B300059EC0FF00FC027F010C028F0000E2A6EED
:101B40000A0E296EB7EC0DF02750300F59EC0FF04C
:101B50000FC027F010C028F0000E2A6E0A0E296E62
:101B60007AEC0EF02750300F59EC0FF01200000EF7
:101B70002C6E2ABEC0EF0DF0BEEF0DF0C6EF0DF0DB
:101B8000296C2A1ED8B02A2A010E2C6E28BECDEF51
:101B90000DF0CBEF0DF0D3EF0DF0276C281ED8B071
:101BA000282A010E2C1A000E2E6E000E2D6E2950C2
:101BB0002A10D8B4DEEF0DF0E0EF0DF008EF0EF0D4
:101BC000010E2B6EE8EF0DF0D89029362A362B2A1D
:101BD0002AAEEDEF0DF0EFEF0DF0E4EF0DF0D89041
:101BE0002D362E362950275C2A502858D8A0FBEFD6
:101BF0000DF0FDEF0DF002EF0EF02950275E2A5098
:101C0000285A2D80D8902A3229322B2EEFEF0DF052
:101C10002C50D8B40EEF0EF010EF0EF014EF0EF0C3
:101C20002D6C2E1ED8B02E2A2DC027F02EC028F0E5
:101C30001200E3EC0FF01FC023F020C024F0BFEC33
:101C40000FF01FC025F020C026F023042410D8A4D4
:101C50002CEF0EF02EEF0EF034EF0EF0000E186E9B
:101C6000010E176E79EF0EF025042610D8A43BEF75
:101C70000EF03DEF0EF067EF0EF01B4A1C2A1CBE63
:101C80004BEF0EF01C5009E1640E1B5CD8A04BEF2B
:101C90000EF04DEF0EF079EF0EF0194A1A2A1ABE27
:101CA0005BEF0EF01A5009E1150E195CD8A05BEF3E
:101CB0000EF05DEF0EF079EF0EF0000E166E010ED5
:101CC000156E000E1A6E000E196E79EF0EF0000EF2
:101CD0001C6E000E1B6E000E1A6E000E196E000EAA
:101CE000186E000E176E000E166E000E156E79EF50
:101CF0000EF01200000E2C6E28BE83EF0EF081EF66
:101D00000EF089EF0EF0276C281ED8B0282A010E9D
:101D10002C6E2ABE90EF0EF08EEF0EF094EF0EF0C8
:101D2000296C2A1ED8B02A2A29502A10D8B49BEF31
:101D30000EF09DEF0EF0C1EF0EF0010E2B6EA5EF31
:101D40000EF0D89029362A362B2A2AAEAAEF0EF0AA
:101D5000ACEF0EF0A1EF0EF02950275C2A50285866
:101D6000D8A0B5EF0EF0B7EF0EF0BBEF0EF0295094
:101D7000275E2A50285AD8902A3229322B2EACEFCF
:101D80000EF02C50D8B4C7EF0EF0C9EF0EF0CDEF27
:101D90000EF0276C281ED8B0282A27C027F028C0AC
:101DA00028F0120014BEDEEF0EF0145009E1640EAC
:101DB000135CD8A0DEEF0EF0E0EF0EF020EF0FF096
:101DC000000E146E000E136E0F4A102A10BEF2EFB2
:101DD0000EF0105009E13C0E0F5CD8A0F2EF0EF0AF
:101DE000F4EF0EF0FAEF0EF0000E106E000E0F6E14
:101DF0000D4A0E2A0EBE06EF0FF00E5009E13C0E02
:101E00000D5CD8A006EF0FF008EF0FF00EEF0FF00B
:101E1000000E0E6E000E0D6E0B4A0C2A0CBE1AEF51
:101E20000FF00C5009E1180E0B5CD8A01AEF0FF060
:101E30001CEF0FF020EF0FF0000E0C6E000E0B6E7B
:101E40001200276E27C029F0000E286E27AE2BEF58
:101E50000FF02DEF0FF030EF0FF08B8A31EF0FF016
:101E60008B9A8BA836EF0FF038EF0FF03CEF0FF0A6
:101E7000D88029363FEF0FF029502924296E8B8610
:101E800000F000F000F000F000F000F000F000F0D2
:101E900000F000F000F000F08B96D8902736282A4A
:101EA000070E286456EF0FF058EF0FF026EF0FF0F3
:101EB00012002D6E110E2C6E3A0EE82EFED72C2E2F
:101EC000FCD700D0800E2A6E120E6DEC10F0040EBE
:101ED0002C6E3E0EE82EFED72C2EFCD72DC02AF0FD
:101EE000130E6DEC10F0040E2C6E3E0EE82EFED795
:101EF0002C2EFCD7C00E2A6E120E6DEC10F0040EC4
:101F00002C6E3E0EE82EFED72C2EFCD7000E2A6E2D
:101F1000120E6DEC10F012002D6E110E2C6E3A0E9A
:101F2000E82EFED72C2EFCD700D0000E2A6E120E03
:101F30006DEC10F0040E2C6E3E0EE82EFED72C2E0B
:101F4000FCD72DC02AF0130E6DEC10F0040E2C6E91
:101F50003E0EE82EFED72C2EFCD7400E2A6E120E17
:101F60006DEC10F0040E2C6E3E0EE82EFED72C2EDB
:101F7000FCD7000E2A6E120E6DEC10F0120034C069
:101F800035F0000E81B0010E346E000E226E000E90
:101F9000216E34503518D8A4D0EF0FF0D2EF0FF0E7
:101FA000DEEF0FF03550D8A4D8EF0FF0DAEF0FF0D6
:101FB000DEEF0FF0000E226E010E216E21C01FF029
:101FC00022C020F0120036C037F0000E80BA010E99
:101FD000366E000E226E000E216E36503718D8A4D1
:101FE000F4EF0FF0F6EF0FF002EF10F03750D8A437
:101FF000FCEF0FF0FEEF0FF002EF10F0000E226E7C
:10200000010E216E21C01FF022C020F0120015EF3A
:1020100010F02EC0F6FF2FC0F7FF000EF86E08007C
:10202000F55059EC0FF02E4A2F2A2EC0F6FF2FC084
:10203000F7FF000EF86E0800F5500009D8A423EF52
:1020400010F025EF10F009EF10F012000600F2A4D6
:102050002CEF10F02EEF10F042EF10F0F2AA33EF59
:1020600010F035EF10F042EF10F0F294000ED76E42
:1020700038C0D6FF134A142A000E126E010E116EDC
:1020800019EC0EF03B921100080EF66E210EF76E61
:10209000000EF86E00EE34F010EE04F00900F5CFFB
:1020A000EEFFE550E150FAE100EE01F01E0EEE6A9F
:1020B000E806FDE13B903B92000108EF0AF0F28E4A
:1020C000F28A810ED56EFD0ED76E8F0ED66ED6CFEC
:1020D00038F0D7CF39F03A6A12002B6E8994400E4F
:1020E00021EC0FF02B5021EC0FF02A5021EC0FF0D7
:1020F00089841200470ED36E0F0E9B6E1200928AD7
:0C21000093800F0EC16E1200010101015E
:020000040020DA
:08000000FFFFFFFFFFFFFFFF00
:020000040030CA
:0E000000FF06191EF38381FFFFC0FFE0FF40E3
:00000001FF
