:020000040000FA
:0400000007EF00F016
:0A000800408235ED10F08DEF11F08D
:101000000020202053544F50205741544348202063
:10101000200020204E4F524D414C20434C4F434B1B
:10102000202000204D4F44494649455320484F5504
:101030005220004D4F444946494553205345434FA4
:101040004E44004D4F444946494553204D494E5565
:1010500054450000D5EC11F0C2EC11F0DAEC11F0BF
:10106000FEEC10F0000E246E000E236E000E3B6EA0
:10107000000E3A6E1D501E10D8A441EF08F043EF49
:1010800008F011EF09F0000E3B6E000E3A6E11EF02
:1010900009F0000E106E000E0F6E000E126E000EA4
:1010A000116E000E146E000E136EE6EC0FF0C5EC20
:1010B0000EF01D041E10D8A460EF08F062EF08F0D7
:1010C0003AEF08F03A503B10D8A469EF08F06BEF04
:1010D00008F032EF09F0000E3B6E010E3A6E010E81
:1010E000246E000E046E000E036E000E0E6E000ED7
:1010F0000D6E3AEF08F0D6EC0CF0D9EC0AF01D04B6
:101100001E10D8A486EF08F088EF08F03AEF08F038
:101110003A503B10D8A48FEF08F091EF08F032EF6F
:1011200009F0000E3B6E010E3A6E020E246E000EA8
:10113000046E000E036E000E0E6E000E0D6E3AEF82
:1011400008F03EEC0CF009EC0AF01D041E10D8A4C7
:10115000ACEF08F0AEEF08F03AEF08F03A503B1071
:10116000D8A4B5EF08F0B7EF08F032EF09F0000EA1
:101170003B6E010E3A6E030E246E000E046E000EDE
:10118000036E000E0E6E000E0D6E3AEF08F0A6EC28
:101190000BF036EC09F01D041E10D8A4D2EF08F0B5
:1011A000D4EF08F03AEF08F03A503B10D8A4DBEF48
:1011B00008F0DDEF08F032EF09F0000E3B6E010E93
:1011C0003A6E040E246E000E166E000E156E000EA2
:1011D0000E6E000E0D6E3AEF08F0E6EC0FF06EECBE
:1011E0000DF0EFEC0DF01D041E10D8A4FAEF08F07E
:1011F000FCEF08F03AEF08F03A503B10D8A403EFA8
:1012000009F005EF09F032EF09F0000E3B6E010E18
:101210003A6E000E246E000E166E000E156E3AEF3A
:1012200008F02450386E396A3950000AD8B41BEFE0
:1012300009F03AEF08F03850000AD8B449EF08F046
:10124000010AD8B47BEF08F0030AD8B4A1EF08F084
:10125000010AD8B4C7EF08F0070AD8B4EDEF08F0D8
:101260003AEF08F03AEF08F007EF00F0800ED3EC09
:1012700010F0330E346E100E356E6EEC11F0C00EA1
:10128000D3EC10F005C02DF006C02EF0000E306E2D
:101290000A0E2F6E2CEC0FF02D50300FA8EC10F032
:1012A00005C02DF006C02EF0000E306E0A0E2F6E17
:1012B0008EEC0FF02D50300FA8EC10F0C20ED3ECD6
:1012C00010F03A0EA8EC10F007C02DF008C02EF078
:1012D000000E306E0A0E2F6E2CEC0FF02D50300FDA
:1012E000A8EC10F007C02DF008C02EF0000E306EF4
:1012F0000A0E2F6E8EEC0FF02D50300FA8EC10F070
:10130000C50ED3EC10F03A0EA8EC10F0C60ED3ECDC
:1013100010F00EBE95EF09F00E5009E10A0E0D5CBB
:10132000D8A095EF09F097EF09F0DFEF09F0000E74
:101330000E6E000E0D6E20BEA8EF09F0205006E1E3
:101340001F04D8B0A6EF09F0A8EF09F0DFEF09F00D
:1013500003500410D8A4AFEF09F0B1EF09F0B9EFD2
:1013600009F0200EA8EC10F0200EA8EC10F0D5EF3C
:1013700009F009C02DF00AC02EF0000E306E0A0EE2
:101380002F6E2CEC0FF02D50300FA8EC10F009C090
:101390002DF00AC02EF0000E306E0A0E2F6E8EEC6D
:1013A0000FF02D50300FA8EC10F0010E0324366E14
:1013B000000E0420376E010E3614036E046A20BE40
:1013C000EAEF09F0205008E11F04D8A0EAEF09F085
:1013D000ECEF09F008EF0AF009C02DF00AC02EF07A
:1013E000000E306E0A0E2F6E2CEC0FF02D50300FC9
:1013F000A8EC10F009C02DF00AC02EF0000E306EDF
:101400000A0E2F6E8EEC0FF02D50300FA8EC10F05E
:101410001200800ED3EC10F0430E346E100E356EB9
:101420006EEC11F0C00ED3EC10F005C02DF006C02C
:101430002EF0000E306E0A0E2F6E2CEC0FF02D5099
:10144000300FA8EC10F005C02DF006C02EF0000EF5
:10145000306E0A0E2F6E8EEC0FF02D50300FA8EC70
:1014600010F03A0EA8EC10F0C30ED3EC10F00EBE44
:1014700043EF0AF00E5009E10A0E0D5CD8A043EFCD
:101480000AF045EF0AF08DEF0AF0000E0E6E000E26
:101490000D6E20BE56EF0AF0205006E11F04D8B0B2
:1014A00054EF0AF056EF0AF08DEF0AF003500410E3
:1014B000D8A45DEF0AF05FEF0AF067EF0AF0200EA4
:1014C000A8EC10F0200EA8EC10F083EF0AF007C093
:1014D0002DF008C02EF0000E306E0A0E2F6E2CEC90
:1014E0000FF02D50300FA8EC10F007C02DF008C001
:1014F0002EF0000E306E0A0E2F6E8EEC0FF02D5077
:10150000300FA8EC10F0010E0324366E000E0420FC
:10151000376E010E3614036E046A20BE98EF0AF08F
:10152000205008E11F04D8A098EF0AF09AEF0AF0C3
:10153000B6EF0AF007C02DF008C02EF0000E306E96
:101540000A0E2F6E2CEC0FF02D50300FA8EC10F07F
:1015500007C02DF008C02EF0000E306E0A0E2F6E60
:101560008EEC0FF02D50300FA8EC10F0C50ED3EC20
:1015700010F03A0EA8EC10F009C02DF00AC02EF0C1
:10158000000E306E0A0E2F6E2CEC0FF02D50300F27
:10159000A8EC10F009C02DF00AC02EF0000E306E3D
:1015A0000A0E2F6E8EEC0FF02D50300FA8EC10F0BD
:1015B0001200800ED3EC10F0230E346E100E356E38
:1015C0006EEC11F0C00ED3EC10F00EBEF1EF0AF08D
:1015D0000E5009E10A0E0D5CD8A0F1EF0AF0F3EF0E
:1015E0000AF03BEF0BF0000E0E6E000E0D6E20BEEB
:1015F00004EF0BF0205006E11F04D8B002EF0BF00F
:1016000004EF0BF03BEF0BF003500410D8A40BEFEA
:101610000BF00DEF0BF015EF0BF0200EA8EC10F017
:10162000200EA8EC10F031EF0BF005C02DF006C035
:101630002EF0000E306E0A0E2F6E2CEC0FF02D5097
:10164000300FA8EC10F005C02DF006C02EF0000EF3
:10165000306E0A0E2F6E8EEC0FF02D50300FA8EC6E
:1016600010F0010E0324366E000E0420376E010EBA
:101670003614036E046A20BE46EF0BF0205008E1DA
:101680001F04D8A046EF0BF048EF0BF064EF0BF00F
:1016900005C02DF006C02EF0000E306E0A0E2F6E23
:1016A0002CEC0FF02D50300FA8EC10F005C02DF0F1
:1016B00006C02EF0000E306E0A0E2F6E8EEC0FF06C
:1016C0002D50300FA8EC10F0C20ED3EC10F03A0EF3
:1016D000A8EC10F007C02DF008C02EF0000E306E00
:1016E0000A0E2F6E2CEC0FF02D50300FA8EC10F0DE
:1016F00007C02DF008C02EF0000E306E0A0E2F6EBF
:101700008EEC0FF02D50300FA8EC10F03A0EA8EC34
:1017100010F009C02DF00AC02EF0000E306E0A0E37
:101720002F6E2CEC0FF02D50300FA8EC10F009C0EC
:101730002DF00AC02EF0000E306E0A0E2F6E8EECC9
:101740000FF02D50300FA8EC10F0120012EF0CF03B
:101750001D501E10D8A4AFEF0BF0B1EF0BF02BEF24
:101760000CF022BEBCEF0BF0225008E12104D8A0FF
:10177000BCEF0BF0BEEF0BF02BEF0CF0094A0A2A7E
:10178000010E236E2BEF0CF021502210D8B4CBEFBA
:101790000BF0CDEF0BF0D6EF0BF01D041E10D8A40C
:1017A000D4EF0BF0D6EF0BF0D8EF0BF0000E236E5A
:1017B00020BEE3EF0BF0205008E11F04D8A0E3EFB8
:1017C0000BF0E5EF0BF02BEF0CF0000E1A6E010E94
:1017D000196E020E236E2BEF0CF021502210D8B49C
:1017E000F4EF0BF0F6EF0BF0FFEF0BF01D041E1003
:1017F000D8A4FDEF0BF0FFEF0BF001EF0CF0000EA3
:10180000236E19041A10D8A408EF0CF00AEF0CF09C
:101810002BEF0CF0000E1A6E000E196E094A0A2A00
:101820002BEF0CF023502D6E2E6A2E50000AD8B4E8
:101830001CEF0CF02BEF0CF02D50000AD8B4A8EFE1
:101840000BF0010AD8B4C4EF0BF0030AD8B4EDEFE3
:101850000BF02BEF0CF00ABE37EF0CF00A5009E149
:101860003C0E095CD8A037EF0CF039EF0CF03DEFDF
:101870000CF0000E0A6E000E096E1200AAEF0CF0BA
:101880001D501E10D8A447EF0CF049EF0CF0C3EF29
:101890000CF022BE54EF0CF0225008E12104D8A035
:1018A00054EF0CF056EF0CF0C3EF0CF0074A082A87
:1018B000010E236EC3EF0CF021502210D8B463EF59
:1018C0000CF065EF0CF06EEF0CF01D041E10D8A4A8
:1018D0006CEF0CF06EEF0CF070EF0CF0000E236E5E
:1018E00020BE7BEF0CF0205008E11F04D8A07BEF56
:1018F0000CF07DEF0CF0C3EF0CF0000E1A6E010E31
:10190000196E020E236EC3EF0CF021502210D8B4D2
:101910008CEF0CF08EEF0CF097EF0CF01D041E1006
:10192000D8A495EF0CF097EF0CF099EF0CF0000EA7
:10193000236E19041A10D8A4A0EF0CF0A2EF0CF03B
:10194000C3EF0CF0000E1A6E000E196E074A082A3B
:10195000C3EF0CF023502D6E2E6A2E50000AD8B41F
:10196000B4EF0CF0C3EF0CF02D50000AD8B440EFE8
:101970000CF0010AD8B45CEF0CF0030AD8B485EF80
:101980000CF0C3EF0CF008BECFEF0CF0085009E1EB
:101990003C0E075CD8A0CFEF0CF0D1EF0CF0D5EFE8
:1019A0000CF0000E086E000E076E120042EF0DF0F4
:1019B0001D501E10D8A4DFEF0CF0E1EF0CF05BEF30
:1019C0000DF022BEECEF0CF0225008E12104D8A06B
:1019D000ECEF0CF0EEEF0CF05BEF0DF0054A062A91
:1019E000010E236E5BEF0DF021502210D8B4FBEFF7
:1019F0000CF0FDEF0CF006EF0DF01D041E10D8A446
:101A000004EF0DF006EF0DF008EF0DF0000E236E61
:101A100020BE13EF0DF0205008E11F04D8A013EFF3
:101A20000DF015EF0DF05BEF0DF0000E1A6E010ECC
:101A3000196E020E236E5BEF0DF021502210D8B408
:101A400024EF0DF026EF0DF02FEF0DF01D041E100A
:101A5000D8A42DEF0DF02FEF0DF031EF0DF0000EAB
:101A6000236E19041A10D8A438EF0DF03AEF0DF0D8
:101A70005BEF0DF0000E1A6E000E196E054A062A75
:101A80005BEF0DF023502D6E2E6A2E50000AD8B455
:101A90004CEF0DF05BEF0DF02D50000AD8B4D8EFED
:101AA0000CF0010AD8B4F4EF0CF0030AD8B41DEF1F
:101AB0000DF05BEF0DF006BE67EF0DF0065009E18B
:101AC000180E055CD8A067EF0DF069EF0DF06DEF13
:101AD0000DF0000E066E000E056E12001B041C10A9
:101AE000D8A475EF0DF077EF0DF0A3EF0DF01750C0
:101AF0001810D8A47EEF0DF080EF0DF0A3EF0DF0DD
:101B0000000E186E010E176E15501610D8A48BEF2C
:101B10000DF08DEF0DF099EF0DF0000E106E000E30
:101B20000F6E000E126E000E116E000E146E000E7F
:101B3000136E010E15242D6E000E16202E6E010E52
:101B40002D14156E166A1B501C10D8A4AAEF0DF0A8
:101B5000ACEF0DF0B0EF0DF0000E186E000E176E2A
:101B600015041610D8A4B7EF0DF0B9EF0DF0EEEF95
:101B70000DF00B040C10D8A4C0EF0DF0C2EF0DF067
:101B8000C8EF0DF0000E0C6E000E0B6E114A122AFB
:101B900012BED4EF0DF0125009E13C0E115CD8A03A
:101BA000D4EF0DF0D6EF0DF0DCEF0DF0000E126E5D
:101BB000000E116E134A142A14BEE8EF0DF01450F3
:101BC00009E13C0E135CD8A0E8EF0DF0EAEF0DF050
:101BD000EEEF0DF0000E146E000E136E1200800E6C
:101BE000D3EC10F0010E346E100E356E6EEC11F069
:101BF000C00ED3EC10F013C02DF014C02EF0000E68
:101C0000306E0A0E2F6E2CEC0FF02D50300FA8EC1A
:101C100010F013C02DF014C02EF0000E306E0A0E1E
:101C20002F6E8EEC0FF02D50300FA8EC10F03A0E06
:101C3000A8EC10F0C30ED3EC10F011C02DF012C0C0
:101C40002EF0000E306E0A0E2F6E2CEC0FF02D5081
:101C5000300FA8EC10F011C02DF012C02EF0000EC5
:101C6000306E0A0E2F6E8EEC0FF02D50300FA8EC58
:101C700010F03A0EA8EC10F0C60ED3EC10F00FC026
:101C80002DF010C02EF0000E306E0A0E2F6E2CECD0
:101C90000FF02D50300FA8EC10F00FC02DF010C039
:101CA0002EF0000E306E0A0E2F6E8EEC0FF02D50BF
:101CB000300FA8EC10F012004AEC11F025C029F00A
:101CC00026C02AF026EC11F025C02BF026C02CF0FF
:101CD00029042A10D8A46FEF0EF071EF0EF077EF01
:101CE0000EF0000E1E6E010E1D6EC4EF0EF02B04E2
:101CF0002C10D8A47EEF0EF080EF0EF0AEEF0EF0B9
:101D0000214A222A000E1C6E010E1B6E22BE92EF8B
:101D10000EF0225009E1640E215CD8A092EF0EF083
:101D200094EF0EF0C4EF0EF01F4A202A20BEA2EF5F
:101D30000EF0205009E1150E1F5CD8A0A2EF0EF0A6
:101D4000A4EF0EF0C4EF0EF0000E1A6E010E196E25
:101D5000000E206E000E1F6EC4EF0EF0000E226EFD
:101D6000000E216E000E206E000E1F6E000E1E6E05
:101D7000000E1D6E000E1C6E000E1B6E000E1A6E05
:101D8000000E196EC4EF0EF01200800ED3EC10F0AE
:101D9000120E346E100E356E6EEC11F0C00ED3ECD8
:101DA00010F005C02DF006C02EF0000E306E0A0EA9
:101DB0002F6E2CEC0FF02D50300FA8EC10F005C05A
:101DC0002DF006C02EF0000E306E0A0E2F6E8EEC37
:101DD0000FF02D50300FA8EC10F03A0EA8EC10F0D8
:101DE00007C02DF008C02EF0000E306E0A0E2F6EC8
:101DF0002CEC0FF02D50300FA8EC10F007C02DF098
:101E000008C02EF0000E306E0A0E2F6E8EEC0FF012
:101E10002D50300FA8EC10F03A0EA8EC10F009C0CD
:101E20002DF00AC02EF0000E306E0A0E2F6E2CEC34
:101E30000FF02D50300FA8EC10F009C02DF00AC0A3
:101E40002EF0000E306E0A0E2F6E8EEC0FF02D501D
:101E5000300FA8EC10F01200000E326E30BE35EFDD
:101E60000FF033EF0FF03BEF0FF02F6C301ED8B0B8
:101E7000302A010E326E2EBE42EF0FF040EF0FF00F
:101E800048EF0FF02D6C2E1ED8B02E2A010E321AFC
:101E9000000E346E000E336E2F503010D8B453EF56
:101EA0000FF055EF0FF07DEF0FF0010E316E5DEF8B
:101EB0000FF0D8902F363036312A30AE62EF0FF067
:101EC00064EF0FF059EF0FF0D890333634362F50BF
:101ED0002D5C30502E58D8A070EF0FF072EF0FF03D
:101EE00077EF0FF02F502D5E30502E5A3380D89060
:101EF00030322F32312E64EF0FF03250D8B483EFEE
:101F00000FF085EF0FF089EF0FF0336C341ED8B06F
:101F1000342A33C02DF034C02EF01200000E326E81
:101F20002EBE97EF0FF095EF0FF09DEF0FF02D6C99
:101F30002E1ED8B02E2A010E326E30BEA4EF0FF046
:101F4000A2EF0FF0A8EF0FF02F6C301ED8B0302AA0
:101F50002F503010D8B4AFEF0FF0B1EF0FF0D5EF36
:101F60000FF0010E316EB9EF0FF0D8902F363036EA
:101F7000312A30AEBEEF0FF0C0EF0FF0B5EF0FF02B
:101F80002F502D5C30502E58D8A0C9EF0FF0CBEF5A
:101F90000FF0CFEF0FF02F502D5E30502E5AD8900B
:101FA00030322F32312EC0EF0FF03250D8B4DBEF89
:101FB0000FF0DDEF0FF0E1EF0FF02D6C2E1ED8B01B
:101FC0002E2A2DC02DF02EC02EF012000EBEF2EFE4
:101FD0000FF00E5009E1640E0D5CD8A0F2EF0FF087
:101FE000F4EF0FF034EF10F0000E0E6E000E0D6ED9
:101FF000094A0A2A0ABE06EF10F00A5009E13C0E0F
:10200000095CD8A006EF10F008EF10F00EEF10F00A
:10201000000E0A6E000E096E074A082A08BE1AEF63
:1020200010F0085009E13C0E075CD8A01AEF10F040
:102030001CEF10F022EF10F0000E086E000E076E7D
:10204000054A062A06BE2EEF10F0065009E1180ECA
:10205000055CD8A02EEF10F030EF10F034EF10F048
:10206000000E066E000E056E12000600F2A43BEF95
:1020700010F03DEF10F06EEF10F0F2AA42EF10F00A
:1020800044EF10F06EEF10F0F294FD0ED76E5F0E7D
:10209000D66E0D4A0E2A15041610D8A452EF10F071
:1020A00054EF10F06CEF10F00F4A102A10BE62EFE0
:1020B00010F0105009E1640E0F5CD8A062EF10F030
:1020C00064EF10F06CEF10F0000E106E000E0F6E4B
:1020D000000E0C6E010E0B6E5CEC0EF040921100C7
:1020E0002D6E2DC02FF0000E2E6E2DAE7AEF10F05B
:1020F0007CEF10F07FEF10F08B8A80EF10F08B9A5E
:102100008BA885EF10F087EF10F08BEF10F0D880E0
:102110002F368EEF10F02F502F242F6E8B8600F06D
:1021200000F000F000F000F000F000F000F000F02F
:1021300000F000F000F08B96D8902D362E2A070E76
:102140002E64A5EF10F0A7EF10F075EF10F012005D
:10215000336E800E306E120EB5EC11F0040E326E3E
:102160003E0EE82EFED7322EFCD733C030F0130ED1
:10217000B5EC11F0040E326E3E0EE82EFED7322E74
:10218000FCD7C00E306E120EB5EC11F0040E326E9C
:102190003E0EE82EFED7322EFCD7000E306E120E09
:1021A000B5EC11F01200336E000E306E120EB5EC6D
:1021B00011F0040E326E3E0EE82EFED7322EFCD702
:1021C00033C030F0130EB5EC11F0040E326E3E0E3B
:1021D000E82EFED7322EFCD7400E306E120EB5EC34
:1021E00011F0040E326E3E0EE82EFED7322EFCD7D2
:1021F000000E306E120EB5EC11F01200CCEC11F0A6
:10220000979C8E9C8E8C000EA8EC11F0010EA8EC11
:1022100011F0000E306E120EB5EC11F0310E346E6E
:10222000B20EE82EFED7342EFCD700D0320ED3ECFF
:1022300010F03C0ED3EC10F00C0ED3EC10F0010EAD
:10224000D3EC10F0060ED3EC10F012003CC03DF0C1
:10225000000E81B0010E3C6E000E286E000E276E3F
:102260003C503D18D8A437EF11F039EF11F045EF8D
:1022700011F03D50D8A43FEF11F041EF11F045EFC0
:1022800011F0000E286E010E276E27C025F028C021
:1022900026F012003EC03FF0000E80BA010E3E6EE6
:1022A000000E286E000E276E3E503F18D8A45BEF3C
:1022B00011F05DEF11F069EF11F03F50D8A463EF1A
:1022C00011F065EF11F069EF11F0000E286E010EAC
:1022D000276E27C025F028C026F012007CEF11F0F1
:1022E00034C0F6FF35C0F7FF000EF86E0800F55059
:1022F000A8EC10F0344A352A34C0F6FF35C0F7FF99
:10230000000EF86E0800F5500009D8A48AEF11F00D
:102310008CEF11F070EF11F01200BE0EF66E230E6E
:10232000F76E000EF86E00EE3CF010EE04F00900BF
:10233000F5CFEEFFE550E150FAE100EE01F0240E9A
:10234000EE6AE806FDE14090409200012AEF08F0B5
:10235000306E8994400E70EC10F0305070EC10F03C
:10236000000E70EC10F089841200316E8994400EDA
:1023700070EC10F0315070EC10F0305070EC10F048
:1023800089841200F28EF28AF294840ED56EFD0ECC
:10239000D76E7F0ED66E120092949488949A94967B
:1023A00089848B888B9A8B961200770ED36E0F0ED2
:1023B0009B6E1200928A93800F0EC16E1200010173
:0223C000010119
:020000040020DA
:08000000FFFFFFFFFFFFFFFF00
:020000040030CA
:0E000000FF06191EF38381FFFFC0FFE0FF40E3
:00000001FF
