:020000040000FA
:0400000007EF00F016
:0A0008004082FBED0FF053EF11F002
:101000000020202053544F50205741544348202063
:10101000200020204E4F524D414C20434C4F434B1B
:10102000202000204D4F44494649455320484F5504
:101030005220004D4F444946494553205345434FA4
:101040004E44004D4F444946494553204D494E5565
:10105000544500009BEC11F088EC11F0A0EC11F06D
:10106000C4EC10F0000E246E000E236E000E3B6EDA
:10107000000E3A6E1D501E10D8A441EF08F043EF49
:1010800008F0E2EF08F0000E3B6E000E3A6EE2EF61
:1010900008F0000E106E000E0F6E000E126E000EA5
:1010A000116E000E146E000E136EACEC0FF08BEC94
:1010B0000EF03A503B10D8A460EF08F062EF08F051
:1010C000E2EF08F0000E3B6E010E3A6E010E246E48
:1010D000000E046E000E036E000E0E6E000E0D6EFE
:1010E000E2EF08F0A5EC0CF0A8EC0AF03A503B1047
:1010F000D8A47DEF08F07FEF08F0E2EF08F0000ED3
:101100003B6E010E3A6E020E246E000E046E000E4F
:10111000036E000E0E6E000E0D6EE2EF08F00DEC89
:101120000CF0D8EC09F03A503B10D8A49AEF08F034
:101130009CEF08F0E2EF08F0000E3B6E010E3A6EF5
:10114000030E246E000E046E000E036E000E0E6E73
:10115000000E0D6EE2EF08F075EC0BF005EC09F0F7
:101160003A503B10D8A4B7EF08F0B9EF08F0E2EF1F
:1011700008F0000E3B6E010E3A6E040E246E000E57
:10118000166E000E156E000E0E6E000E0D6EE2EF66
:1011900008F0ACEC0FF03DEC0DF0B5EC0DF03A5072
:1011A0003B10D8A4D6EF08F0D8EF08F0E2EF08F033
:1011B000000E3B6E010E3A6E000E246E000E166E8F
:1011C000000E156E2450386E396A3950000AD8B4B2
:1011D000ECEF08F0E2EF08F03850000AD8B449EF1D
:1011E00008F0010AD8B472EF08F0030AD8B48FEF00
:1011F00008F0010AD8B4ACEF08F0070AD8B4C9EF78
:1012000008F0E2EF08F007EF00F0800E99EC10F024
:10121000330E346E100E356E34EC11F0C00E99ECB6
:1012200010F005C02DF006C02EF0000E306E0A0E34
:101230002F6EF2EC0EF02D50300F6EEC10F005C05A
:101240002DF006C02EF0000E306E0A0E2F6E54ECFC
:101250000FF02D50300F6EEC10F0C20E99EC10F024
:101260003A0E6EEC10F007C02DF008C02EF0000E04
:10127000306E0A0E2F6EF2EC0EF02D50300F6EEC29
:1012800010F007C02DF008C02EF0000E306E0A0ED0
:101290002F6E54EC0FF02D50300F6EEC10F0C50E89
:1012A00099EC10F03A0E6EEC10F0C60E99EC10F0BE
:1012B0000EBE64EF09F00E5009E10A0E0D5CD8A0D5
:1012C00064EF09F066EF09F0AEEF09F0000E0E6E64
:1012D000000E0D6E20BE77EF09F0205006E11F04CE
:1012E000D8B075EF09F077EF09F0AEEF09F00350D1
:1012F0000410D8A47EEF09F080EF09F088EF09F020
:10130000200E6EEC10F0200E6EEC10F0A4EF09F041
:1013100009C02DF00AC02EF0000E306E0A0E2F6E9E
:10132000F2EC0EF02D50300F6EEC10F009C02DF0E5
:101330000AC02EF0000E306E0A0E2F6E54EC0FF025
:101340002D50300F6EEC10F0010E0324366E000E9F
:101350000420376E010E3614036E046A20BEB9EF06
:1013600009F0205008E11F04D8A0B9EF09F0BBEF45
:1013700009F0D7EF09F009C02DF00AC02EF0000ED9
:10138000306E0A0E2F6EF2EC0EF02D50300F6EEC18
:1013900010F009C02DF00AC02EF0000E306E0A0EBB
:1013A0002F6E54EC0FF02D50300F6EEC10F0120039
:1013B000800E99EC10F0430E346E100E356E34EC46
:1013C00011F0C00E99EC10F005C02DF006C02EF003
:1013D000000E306E0A0E2F6EF2EC0EF02D50300F14
:1013E0006EEC10F005C02DF006C02EF0000E306E31
:1013F0000A0E2F6E54EC0FF02D50300F6EEC10F0E3
:101400003A0E6EEC10F0C30E99EC10F00EBE12EF17
:101410000AF00E5009E10A0E0D5CD8A012EF0AF096
:1014200014EF0AF05CEF0AF0000E0E6E000E0D6E67
:1014300020BE25EF0AF0205006E11F04D8B023EFAC
:101440000AF025EF0AF05CEF0AF003500410D8A46C
:101450002CEF0AF02EEF0AF036EF0AF0200E6EECB9
:1014600010F0200E6EEC10F052EF0AF007C02DF0D5
:1014700008C02EF0000E306E0A0E2F6EF2EC0EF049
:101480002D50300F6EEC10F007C02DF008C02EF07C
:10149000000E306E0A0E2F6E54EC0FF02D50300FF0
:1014A0006EEC10F0010E0324366E000E0420376E31
:1014B000010E3614036E046A20BE67EF0AF0205056
:1014C00008E11F04D8A067EF0AF069EF0AF085EF82
:1014D0000AF007C02DF008C02EF0000E306E0A0E84
:1014E0002F6EF2EC0EF02D50300F6EEC10F007C0A6
:1014F0002DF008C02EF0000E306E0A0E2F6E54EC48
:101500000FF02D50300F6EEC10F0C50E99EC10F06E
:101510003A0E6EEC10F009C02DF00AC02EF0000E4D
:10152000306E0A0E2F6EF2EC0EF02D50300F6EEC76
:1015300010F009C02DF00AC02EF0000E306E0A0E19
:101540002F6E54EC0FF02D50300F6EEC10F0120097
:10155000800E99EC10F0230E346E100E356E34ECC4
:1015600011F0C00E99EC10F00EBEC0EF0AF00E5054
:1015700009E10A0E0D5CD8A0C0EF0AF0C2EF0AF034
:101580000AEF0BF0000E0E6E000E0D6E20BED3EFB4
:101590000AF0205006E11F04D8B0D1EF0AF0D3EFD3
:1015A0000AF00AEF0BF003500410D8A4DAEF0AF0A7
:1015B000DCEF0AF0E4EF0AF0200E6EEC10F0200EE3
:1015C0006EEC10F000EF0BF005C02DF006C02EF011
:1015D000000E306E0A0E2F6EF2EC0EF02D50300F12
:1015E0006EEC10F005C02DF006C02EF0000E306E2F
:1015F0000A0E2F6E54EC0FF02D50300F6EEC10F0E1
:10160000010E0324366E000E0420376E010E3614D0
:10161000036E046A20BE15EF0BF0205008E11F0492
:10162000D8A015EF0BF017EF0BF033EF0BF005C060
:101630002DF006C02EF0000E306E0A0E2F6EF2EC6A
:101640000EF02D50300F6EEC10F005C02DF006C0DE
:101650002EF0000E306E0A0E2F6E54EC0FF02D504F
:10166000300F6EEC10F0C20E99EC10F03A0E6EECEA
:1016700010F007C02DF008C02EF0000E306E0A0EDC
:101680002F6EF2EC0EF02D50300F6EEC10F007C004
:101690002DF008C02EF0000E306E0A0E2F6E54ECA6
:1016A0000FF02D50300F6EEC10F03A0E6EEC10F083
:1016B00009C02DF00AC02EF0000E306E0A0E2F6EFB
:1016C000F2EC0EF02D50300F6EEC10F009C02DF042
:1016D0000AC02EF0000E306E0A0E2F6E54EC0FF082
:1016E0002D50300F6EEC10F01200E1EF0BF01D509A
:1016F0001E10D8A47EEF0BF080EF0BF0FAEF0BF08A
:1017000022BE8BEF0BF0225008E12104D8A08BEF12
:101710000BF08DEF0BF0FAEF0BF0094A0A2A010EDD
:10172000236EFAEF0BF021502210D8B49AEF0BF091
:101730009CEF0BF0A5EF0BF01D041E10D8A4A3EF37
:101740000BF0A5EF0BF0A7EF0BF0000E236E20BE01
:10175000B2EF0BF0205008E11F04D8A0B2EF0BF05D
:10176000B4EF0BF0FAEF0BF0000E1A6E010E196ECB
:10177000020E236EFAEF0BF021502210D8B4C3EF03
:101780000BF0C5EF0BF0CEEF0BF01D041E10D8A42C
:10179000CCEF0BF0CEEF0BF0D0EF0BF0000E236E82
:1017A00019041A10D8A4D7EF0BF0D9EF0BF0FAEF09
:1017B0000BF0000E1A6E000E196E094A0A2AFAEF93
:1017C0000BF023502D6E2E6A2E50000AD8B4EBEF8A
:1017D0000BF0FAEF0BF02D50000AD8B477EF0BF0B6
:1017E000010AD8B493EF0BF0030AD8B4BCEF0BF0A6
:1017F000FAEF0BF00ABE06EF0CF00A5009E13C0EBE
:10180000095CD8A006EF0CF008EF0CF00CEF0CF020
:10181000000E0A6E000E096E120079EF0CF01D50DA
:101820001E10D8A416EF0CF018EF0CF092EF0CF08D
:1018300022BE23EF0CF0225008E12104D8A023EFB0
:101840000CF025EF0CF092EF0CF0074A082A010E7D
:10185000236E92EF0CF021502210D8B432EF0CF02E
:1018600034EF0CF03DEF0CF01D041E10D8A43BEF3C
:101870000CF03DEF0CF03FEF0CF0000E236E20BE9D
:101880004AEF0CF0205008E11F04D8A04AEF0CF0FA
:101890004CEF0CF092EF0CF0000E1A6E010E196E68
:1018A000020E236E92EF0CF021502210D8B45BEFA1
:1018B0000CF05DEF0CF066EF0CF01D041E10D8A4C8
:1018C00064EF0CF066EF0CF068EF0CF0000E236E86
:1018D00019041A10D8A46FEF0CF071EF0CF092EF0E
:1018E0000CF0000E1A6E000E196E074A082A92EFCD
:1018F0000CF023502D6E2E6A2E50000AD8B483EFC0
:101900000CF092EF0CF02D50000AD8B40FEF0CF051
:10191000010AD8B42BEF0CF0030AD8B454EF0CF042
:1019200092EF0CF008BE9EEF0CF0085009E13C0E5F
:10193000075CD8A09EEF0CF0A0EF0CF0A4EF0CF029
:10194000000E086E000E076E120011EF0DF01D5014
:101950001E10D8A4AEEF0CF0B0EF0CF02AEF0DF093
:1019600022BEBBEF0CF0225008E12104D8A0BBEF4F
:101970000CF0BDEF0CF02AEF0DF0054A062A010E1F
:10198000236E2AEF0DF021502210D8B4CAEF0CF0CC
:10199000CCEF0CF0D5EF0CF01D041E10D8A4D3EF43
:1019A0000CF0D5EF0CF0D7EF0CF0000E236E20BE3C
:1019B000E2EF0CF0205008E11F04D8A0E2EF0CF099
:1019C000E4EF0CF02AEF0DF0000E1A6E010E196E06
:1019D000020E236E2AEF0DF021502210D8B4F3EF3F
:1019E0000CF0F5EF0CF0FEEF0CF01D041E10D8A467
:1019F000FCEF0CF0FEEF0CF000EF0DF0000E236E8C
:101A000019041A10D8A407EF0DF009EF0DF02AEF12
:101A10000DF0000E1A6E000E196E054A062A2AEF06
:101A20000DF023502D6E2E6A2E50000AD8B41BEFF5
:101A30000DF02AEF0DF02D50000AD8B4A7EF0CF0EE
:101A4000010AD8B4C3EF0CF0030AD8B4ECEF0CF0E1
:101A50002AEF0DF006BE36EF0DF0065009E1180E24
:101A6000055CD8A036EF0DF038EF0DF03CEF0DF02F
:101A7000000E066E000E056E120017501810D8A446
:101A800044EF0DF046EF0DF069EF0DF0000E186E0B
:101A9000010E176E15501610D8A451EF0DF053EF2C
:101AA0000DF05FEF0DF0000E106E000E0F6E000EC9
:101AB000126E000E116E000E146E000E136E010EEB
:101AC00015242D6E000E16202E6E010E2D14156E8F
:101AD000166A1D501E10D8A470EF0DF072EF0DF0B5
:101AE00076EF0DF0000E186E000E176E150416102E
:101AF000D8A47DEF0DF07FEF0DF0B4EF0DF00B04E7
:101B00000C10D8A486EF0DF088EF0DF08EEF0DF0DD
:101B1000000E0C6E000E0B6E114A122A12BE9AEFC6
:101B20000DF0125009E13C0E115CD8A09AEF0DF0B7
:101B30009CEF0DF0A2EF0DF0000E126E000E116E74
:101B4000134A142A14BEAEEF0DF0145009E13C0EF6
:101B5000135CD8A0AEEF0DF0B0EF0DF0B4EF0DF0C8
:101B6000000E146E000E136E1200800E99EC10F031
:101B7000010E346E100E356E34EC11F0C00E99EC7F
:101B800010F013C02DF014C02EF0000E306E0A0EAF
:101B90002F6EF2EC0EF02D50300F6EEC10F013C0E3
:101BA0002DF014C02EF0000E306E0A0E2F6E54EC85
:101BB0000FF02D50300F6EEC10F03A0E6EEC10F06E
:101BC000C30E99EC10F011C02DF012C02EF0000ED3
:101BD000306E0A0E2F6EF2EC0EF02D50300F6EECC0
:101BE00010F011C02DF012C02EF0000E306E0A0E53
:101BF0002F6E54EC0FF02D50300F6EEC10F03A0EAB
:101C00006EEC10F0C60E99EC10F00FC02DF010C065
:101C10002EF0000E306E0A0E2F6EF2EC0EF02D50EC
:101C2000300F6EEC10F00FC02DF010C02EF0000E33
:101C3000306E0A0E2F6E54EC0FF02D50300F6EECFC
:101C400010F0120010EC11F025C029F026C02AF087
:101C5000ECEC10F025C02BF026C02CF029042A1043
:101C6000D8A435EF0EF037EF0EF03DEF0EF0000E7A
:101C70001E6E010E1D6E8AEF0EF02B042C10D8A4E0
:101C800044EF0EF046EF0EF074EF0EF0214A222AD8
:101C9000000E1C6E010E1B6E22BE58EF0EF022507D
:101CA00009E1640E215CD8A058EF0EF05AEF0EF057
:101CB0008AEF0EF01F4A202A20BE68EF0EF0205057
:101CC00009E1150E1F5CD8A068EF0EF06AEF0EF068
:101CD0008AEF0EF0000E1A6E010E196E000E206EC5
:101CE000000E1F6E8AEF0EF0000E226E000E216EA7
:101CF000000E206E000E1F6E000E1E6E000E1D6E7A
:101D0000000E1C6E000E1B6E000E1A6E000E196E79
:101D10008AEF0EF01200800E99EC10F0120E346E65
:101D2000100E356E34EC11F0C00E99EC10F005C0B9
:101D30002DF006C02EF0000E306E0A0E2F6EF2EC63
:101D40000EF02D50300F6EEC10F005C02DF006C0D7
:101D50002EF0000E306E0A0E2F6E54EC0FF02D5048
:101D6000300F6EEC10F03A0E6EEC10F007C02DF054
:101D700008C02EF0000E306E0A0E2F6EF2EC0EF040
:101D80002D50300F6EEC10F007C02DF008C02EF073
:101D9000000E306E0A0E2F6E54EC0FF02D50300FE7
:101DA0006EEC10F03A0E6EEC10F009C02DF00AC087
:101DB0002EF0000E306E0A0E2F6EF2EC0EF02D504B
:101DC000300F6EEC10F009C02DF00AC02EF0000E9E
:101DD000306E0A0E2F6E54EC0FF02D50300F6EEC5B
:101DE00010F01200000E326E30BEFBEF0EF0F9EF75
:101DF0000EF001EF0FF02F6C301ED8B0302A010E1C
:101E0000326E2EBE08EF0FF006EF0FF00EEF0FF060
:101E10002D6C2E1ED8B02E2A010E321A000E346EF2
:101E2000000E336E2F503010D8B419EF0FF01BEFA7
:101E30000FF043EF0FF0010E316E23EF0FF0D8904B
:101E40002F363036312A30AE28EF0FF02AEF0FF060
:101E50001FEF0FF0D890333634362F502D5C3050B2
:101E60002E58D8A036EF0FF038EF0FF03DEF0FF0FF
:101E70002F502D5E30502E5A3380D89030322F3272
:101E8000312E2AEF0FF03250D8B449EF0FF04BEF5C
:101E90000FF04FEF0FF0336C341ED8B0342A33C03C
:101EA0002DF034C02EF01200000E326E2EBE5DEF0B
:101EB0000FF05BEF0FF063EF0FF02D6C2E1ED8B01C
:101EC0002E2A010E326E30BE6AEF0FF068EF0FF06F
:101ED0006EEF0FF02F6C301ED8B0302A2F5030101C
:101EE000D8B475EF0FF077EF0FF09BEF0FF0010E06
:101EF000316E7FEF0FF0D8902F363036312A30AE6A
:101F000084EF0FF086EF0FF07BEF0FF02F502D5C7A
:101F100030502E58D8A08FEF0FF091EF0FF095EFC3
:101F20000FF02F502D5E30502E5AD89030322F3275
:101F3000312E86EF0FF03250D8B4A1EF0FF0A3EF9F
:101F40000FF0A7EF0FF02D6C2E1ED8B02E2A2DC04B
:101F50002DF02EC02EF012000EBEB8EF0FF00E5076
:101F600009E1640E0D5CD8A0B8EF0FF0BAEF0FF0E6
:101F7000FAEF0FF0000E0E6E000E0D6E094A0A2ADF
:101F80000ABECCEF0FF00A5009E13C0E095CD8A064
:101F9000CCEF0FF0CEEF0FF0D4EF0FF0000E0A6E83
:101FA000000E096E074A082A08BEE0EF0FF008503D
:101FB00009E13C0E075CD8A0E0EF0FF0E2EF0FF074
:101FC000E8EF0FF0000E086E000E076E054A062AB5
:101FD00006BEF4EF0FF0065009E1180E055CD8A01C
:101FE000F4EF0FF0F6EF0FF0FAEF0FF0000E066EC1
:101FF000000E056E12000600F2A401EF10F003EFD0
:1020000010F034EF10F0F2AA08EF10F00AEF10F021
:1020100034EF10F0F294FD0ED76E5F0ED66E0D4ABF
:102020000E2A15041610D8A418EF10F01AEF10F0AD
:1020300032EF10F00F4A102A10BE28EF10F01050A7
:1020400009E1640E0F5CD8A028EF10F02AEF10F021
:1020500032EF10F0000E106E000E0F6E000E0C6EC0
:10206000010E0B6E22EC0EF0409211002D6E2DC071
:102070002FF0000E2E6E2DAE40EF10F042EF10F05C
:1020800045EF10F08B8A46EF10F08B9A8BA84BEF40
:1020900010F04DEF10F051EF10F0D8802F3654EFC4
:1020A00010F02F502F242F6E8B8600F000F000F0E0
:1020B00000F000F000F000F000F000F000F000F0A0
:1020C00000F08B96D8902D362E2A070E2E646BEFDB
:1020D00010F06DEF10F03BEF10F01200336E800E39
:1020E000306E120E7BEC11F0040E326E3E0EE82EB6
:1020F000FED7322EFCD733C030F0130E7BEC11F03C
:10210000040E326E3E0EE82EFED7322EFCD7C00EE5
:10211000306E120E7BEC11F0040E326E3E0EE82E85
:10212000FED7322EFCD7000E306E120E7BEC11F073
:102130001200336E000E306E120E7BEC11F0040EA6
:10214000326E3E0EE82EFED7322EFCD733C030F072
:10215000130E7BEC11F0040E326E3E0EE82EFED70D
:10216000322EFCD7400E306E120E7BEC11F0040EB6
:10217000326E3E0EE82EFED7322EFCD7000E306EA9
:10218000120E7BEC11F0120092EC11F0979C8E9CD9
:102190008E8C000E6EEC11F0010E6EEC11F0000E44
:1021A000306E120E7BEC11F0310E346EB20EE82E52
:1021B000FED7342EFCD700D0320E99EC10F03C0E36
:1021C00099EC10F00C0E99EC10F0010E99EC10F057
:1021D000060E99EC10F012003CC03DF0000E81B0EC
:1021E000010E3C6E000E286E000E276E3C503D180E
:1021F000D8A4FDEF10F0FFEF10F00BEF11F03D5001
:10220000D8A405EF11F007EF11F00BEF11F0000E5D
:10221000286E010E276E27C025F028C026F0120078
:102220003EC03FF0000E80BA010E3E6E000E286EDA
:10223000000E276E3E503F18D8A421EF11F023EF77
:1022400011F02FEF11F03F50D8A429EF11F02BEF30
:1022500011F02FEF11F0000E286E010E276E27C02F
:1022600025F028C026F0120042EF11F034C0F6FF2E
:1022700035C0F7FF000EF86E0800F5506EEC10F058
:10228000344A352A34C0F6FF35C0F7FF000EF86E29
:102290000800F5500009D8A450EF11F052EF11F0EA
:1022A00036EF11F012004A0EF66E230EF76E000E96
:1022B000F86E00EE3CF010EE04F00900F5CFEEFFF2
:1022C000E550E150FAE100EE01F0240EEE6AE80676
:1022D000FDE14090409200012AEF08F0306E8994B1
:1022E000400E36EC10F0305036EC10F0000E36ECAC
:1022F00010F089841200316E8994400E36EC10F093
:10230000315036EC10F0305036EC10F08984120069
:10231000F28EF28AF294840ED56EFD0ED76E7F0E89
:10232000D66E120092949488949A949689848B889D
:102330008B9A8B961200770ED36E0F0E9B6E120047
:0E234000928A93800F0EC16E120001010101FE
:020000040020DA
:08000000FFFFFFFFFFFFFFFF00
:020000040030CA
:0E000000FF06191EF38381FFFFC0FFE0FF40E3
:00000001FF
