:020000040000FA
:0400000007EF00F016
:0A0008003A82BDED0FF015EF11F084
:101000000020202053544F50205741544348202063
:10101000200020204E4F524D414C20434C4F434B1B
:10102000202000204D4F44494649455320484F5504
:101030005220004D4F444946494553205345434FA4
:101040004E44004D4F444946494553204D494E5565
:10105000544500005DEC11F04AEC11F062EC11F027
:1010600086EC10F0000E206E000E1F6ED3EF08F01D
:10107000000E106E000E0F6E000E126E000E116E3E
:10108000000E146E000E136E6EEC0FF0ECEC0DF013
:1010900019041A10D8A44FEF08F051EF08F0D3EF5D
:1010A00008F0000E1A6E000E196E010E206E000E72
:1010B000046E000E036E000E0E6E000E0D6ED3EF6A
:1010C00008F075EC0CF083EC0AF019041A10D8A49F
:1010D0006CEF08F06EEF08F0D3EF08F0000E1A6E18
:1010E000000E196E020E206E000E046E000E036ECE
:1010F000000E0E6E000E0D6ED3EF08F0DDEC0BF05F
:10110000BEEC09F019041A10D8A489EF08F08BEF8F
:1011100008F0D3EF08F0000E1A6E000E196E030EE1
:10112000206E000E046E000E036E000E0E6E000E9A
:101130000D6ED3EF08F045EC0BF0F6EC08F0190457
:101140001A10D8A4A6EF08F0A8EF08F0D3EF08F023
:10115000000E1A6E000E196E040E206E000E166E32
:10116000000E156E000E0E6E000E0D6ED3EF08F021
:101170006EEC0FF080EC0DF00DEC0DF019041A1070
:10118000D8A4C5EF08F0C7EF08F0D3EF08F0000EC1
:101190001A6E000E196E000E206E000E166E000EF6
:1011A000156ED3EF08F02050346E356A3550000AC2
:1011B000D8B4DDEF08F0D3EF08F03450000AD8B40B
:1011C00038EF08F0010AD8B461EF08F0030AD8B488
:1011D0007EEF08F0010AD8B49BEF08F0070AD8B4F4
:1011E000B8EF08F0D3EF08F007EF00F0800E5BECEB
:1011F00010F0330E306E100E316EF6EC10F0C00EA3
:101200005BEC10F005C029F006C02AF0000E2C6E31
:101210000A0E2B6E53EC0EF02950300F30EC10F00C
:1012200005C029F006C02AF0000E2C6E0A0E2B6EA7
:1012300016EC0FF02950300F30EC10F0C20E5BECC2
:1012400010F03A0E30EC10F007C029F008C02AF078
:10125000000E2C6E0A0E2B6E53EC0EF02950300F40
:1012600030EC10F007C029F008C02AF0000E2C6EF8
:101270000A0E2B6E16EC0FF02950300F30EC10F0E8
:10128000C50E5BEC10F03A0E30EC10F0C60E5BECC5
:1012900010F00EBE55EF09F00E5009E10A0E0D5C7C
:1012A000D8A055EF09F057EF09F0BDEF09F0000E97
:1012B0000E6E000E0D6E1CBE68EF09F01C5006E1AC
:1012C0001B04D8B066EF09F068EF09F0A1EF09F050
:1012D00003500410D8A46FEF09F071EF09F079EF13
:1012E00009F0200E30EC10F0200E30EC10F095EFED
:1012F00009F009C029F00AC02AF0000E2C6E0A0E6F
:101300002B6E53EC0EF02950300F30EC10F009C06A
:1013100029F00AC02AF0000E2C6E0A0E2B6E16EC75
:101320000FF02950300F30EC10F0010E0324326E14
:10133000000E0420336E010E3214036E046ABDEFFA
:1013400009F009C029F00AC02AF0000E2C6E0A0E1E
:101350002B6E53EC0EF02950300F30EC10F009C01A
:1013600029F00AC02AF0000E2C6E0A0E2B6E16EC25
:101370000FF02950300F30EC10F01200800E5BECB3
:1013800010F0430E306E100E316EF6EC10F0C00E01
:101390005BEC10F005C029F006C02AF0000E2C6EA0
:1013A0000A0E2B6E53EC0EF02950300F30EC10F07B
:1013B00005C029F006C02AF0000E2C6E0A0E2B6E16
:1013C00016EC0FF02950300F30EC10F03A0E30ECE4
:1013D00010F0C30E5BEC10F00EBEF8EF09F00E50EB
:1013E00009E10A0E0D5CD8A0F8EF09F0FAEF09F058
:1013F00060EF0AF0000E0E6E000E0D6E1CBE0BEFBD
:101400000AF01C5006E11B04D8B009EF0AF00BEFFC
:101410000AF044EF0AF003500410D8A412EF0AF0C7
:1014200014EF0AF01CEF0AF0200E30EC10F0200E42
:1014300030EC10F038EF0AF007C029F008C02AF0AD
:10144000000E2C6E0A0E2B6E53EC0EF02950300F4E
:1014500030EC10F007C029F008C02AF0000E2C6E06
:101460000A0E2B6E16EC0FF02950300F30EC10F0F6
:10147000010E0324326E000E0420336E010E32146E
:10148000036E046A60EF0AF007C029F008C02AF072
:10149000000E2C6E0A0E2B6E53EC0EF02950300FFE
:1014A00030EC10F007C029F008C02AF0000E2C6EB6
:1014B0000A0E2B6E16EC0FF02950300F30EC10F0A6
:1014C000C50E5BEC10F03A0E30EC10F009C029F0BC
:1014D0000AC02AF0000E2C6E0A0E2B6E53EC0EF092
:1014E0002950300F30EC10F009C029F00AC02AF062
:1014F000000E2C6E0A0E2B6E16EC0FF02950300FDA
:1015000030EC10F01200800E5BEC10F0230E306E09
:10151000100E316EF6EC10F0C00E5BEC10F00EBE4B
:101520009BEF0AF00E5009E10A0E0D5CD8A09BEF6C
:101530000AF09DEF0AF003EF0BF0000E0E6E000EA6
:101540000D6E1CBEAEEF0AF01C5006E11B04D8B0B5
:10155000ACEF0AF0AEEF0AF0E7EF0AF00350041028
:10156000D8A4B5EF0AF0B7EF0AF0BFEF0AF0200EEB
:1015700030EC10F0200E30EC10F0DBEF0AF005C07C
:1015800029F006C02AF0000E2C6E0A0E2B6E53ECCA
:101590000EF02950300F30EC10F005C029F006C0D5
:1015A0002AF0000E2C6E0A0E2B6E16EC0FF029504E
:1015B000300F30EC10F0010E0324326E000E0420C8
:1015C000336E010E3214036E046A03EF0BF005C094
:1015D00029F006C02AF0000E2C6E0A0E2B6E53EC7A
:1015E0000EF02950300F30EC10F005C029F006C085
:1015F0002AF0000E2C6E0A0E2B6E16EC0FF02950FE
:10160000300F30EC10F0C20E5BEC10F03A0E30EC04
:1016100010F007C029F008C02AF0000E2C6E0A0E48
:101620002B6E53EC0EF02950300F30EC10F007C049
:1016300029F008C02AF0000E2C6E0A0E2B6E16EC54
:101640000FF02950300F30EC10F03A0E30EC10F063
:1016500009C029F00AC02AF0000E2C6E0A0E2B6E6B
:1016600053EC0EF02950300F30EC10F009C029F087
:101670000AC02AF0000E2C6E0A0E2B6E16EC0FF02C
:101680002950300F30EC10F01200B1EF0BF0195070
:101690001A10D8A44EEF0BF050EF0BF0CAEF0BF07E
:1016A0001EBE5BEF0BF01E5008E11D04D8A05BEFDF
:1016B0000BF05DEF0BF0CAEF0BF0094A0A2A010E9E
:1016C0001F6ECAEF0BF01D501E10D8B46AEF0BF05E
:1016D0006CEF0BF075EF0BF019041A10D8A473EF30
:1016E0000BF075EF0BF077EF0BF0000E1F6E1CBECA
:1016F00082EF0BF01C5008E11B04D8A082EF0BF026
:1017000084EF0BF0CAEF0BF0000E186E010E176E8F
:10171000020E1F6ECAEF0BF01D501E10D8B493EFCF
:101720000BF095EF0BF09EEF0BF019041A10D8A4F4
:101730009CEF0BF09EEF0BF0A0EF0BF0000E1F6E76
:1017400017041810D8A4A7EF0BF0A9EF0BF0CAEFFD
:101750000BF0000E186E000E176E094A0A2ACAEF27
:101760000BF01F50296E2A6A2A50000AD8B4BBEF2A
:101770000BF0CAEF0BF02950000AD8B447EF0BF07A
:10178000010AD8B463EF0BF0030AD8B48CEF0BF066
:10179000CAEF0BF00ABED6EF0BF00A5009E13C0E7F
:1017A000095CD8A0D6EF0BF0D8EF0BF0DCEF0BF014
:1017B000000E0A6E000E096E120049EF0CF019506F
:1017C0001A10D8A4E6EF0BF0E8EF0BF062EF0CF084
:1017D0001EBEF3EF0BF01E5008E11D04D8A0F3EF7E
:1017E0000BF0F5EF0BF062EF0CF0074A082A010E40
:1017F0001F6E62EF0CF01D501E10D8B402EF0CF0FB
:1018000004EF0CF00DEF0CF019041A10D8A40BEF34
:101810000CF00DEF0CF00FEF0CF0000E1F6E1CBE65
:101820001AEF0CF01C5008E11B04D8A01AEF0CF0C2
:101830001CEF0CF062EF0CF0000E186E010E176E2C
:10184000020E1F6E62EF0CF01D501E10D8B42BEF6D
:101850000CF02DEF0CF036EF0CF019041A10D8A490
:1018600034EF0CF036EF0CF038EF0CF0000E1F6E7A
:1018700017041810D8A43FEF0CF041EF0CF062EF02
:101880000CF0000E186E000E176E074A082A62EF61
:101890000CF01F50296E2A6A2A50000AD8B453EF60
:1018A0000CF062EF0CF02950000AD8B4DFEF0BF017
:1018B000010AD8B4FBEF0BF0030AD8B424EF0CF004
:1018C00062EF0CF008BE6EEF0CF0085009E13C0E20
:1018D000075CD8A06EEF0CF070EF0CF074EF0CF01A
:1018E000000E086E000E076E1200E1EF0CF01950AA
:1018F0001A10D8A47EEF0CF080EF0CF0FAEF0CF089
:101900001EBE8BEF0CF01E5008E11D04D8A08BEF1B
:101910000CF08DEF0CF0FAEF0CF0054A062A010EE0
:101920001F6EFAEF0CF01D501E10D8B49AEF0CF099
:101930009CEF0CF0A5EF0CF019041A10D8A4A3EF3B
:101940000CF0A5EF0CF0A7EF0CF0000E1F6E1CBE04
:10195000B2EF0CF01C5008E11B04D8A0B2EF0CF061
:10196000B4EF0CF0FAEF0CF0000E186E010E176ECB
:10197000020E1F6EFAEF0CF01D501E10D8B4C3EF0C
:101980000CF0C5EF0CF0CEEF0CF019041A10D8A42F
:10199000CCEF0CF0CEEF0CF0D0EF0CF0000E1F6E81
:1019A00017041810D8A4D7EF0CF0D9EF0CF0FAEF09
:1019B0000CF0000E186E000E176E054A062AFAEF9C
:1019C0000CF01F50296E2A6A2A50000AD8B4EBEF97
:1019D0000CF0FAEF0CF02950000AD8B477EF0CF0B5
:1019E000010AD8B493EF0CF0030AD8B4BCEF0CF0A2
:1019F000FAEF0CF006BE06EF0DF0065009E1180EE6
:101A0000055CD8A006EF0DF008EF0DF00CEF0DF01F
:101A1000000E066E000E056E1200800E5BEC10F0DC
:101A2000010E306E100E316EF6EC10F0C00E5BEC55
:101A300010F013C029F014C02AF0000E2C6E0A0E0C
:101A40002B6E53EC0EF02950300F30EC10F013C019
:101A500029F014C02AF0000E2C6E0A0E2B6E16EC24
:101A60000FF02950300F30EC10F0C20E5BEC10F08C
:101A70003A0E30EC10F0C30E5BEC10F011C029F000
:101A800012C02AF0000E2C6E0A0E2B6E53EC0EF0D4
:101A90002950300F30EC10F011C029F012C02AF09C
:101AA000000E2C6E0A0E2B6E16EC0FF02950300F24
:101AB00030EC10F0C50E5BEC10F03A0E30EC10F08C
:101AC000C60E5BEC10F00FC029F010C02AF0000E1B
:101AD0002C6E0A0E2B6E53EC0EF02950300F30ECAA
:101AE00010F00FC029F010C02AF0000E2C6E0A0E64
:101AF0002B6E16EC0FF02950300F30EC10F0120066
:101B00001EBE8CEF0DF01E5009E1050E1D5CD8A025
:101B10008CEF0DF08EEF0DF0ADEF0DF015501610AF
:101B2000D8A495EF0DF097EF0DF0A3EF0DF0000E98
:101B3000106E000E0F6E000E126E000E116E000E73
:101B4000146E000E136E010E1524296E000E162061
:101B50002A6E010E2914156E166A15041610D8A4E3
:101B6000B4EF0DF0B6EF0DF0EBEF0DF00B040C1031
:101B7000D8A4BDEF0DF0BFEF0DF0C5EF0DF0000ED6
:101B80000C6E000E0B6E114A122A12BED1EF0DF030
:101B9000125009E13C0E115CD8A0D1EF0DF0D3EF4B
:101BA0000DF0D9EF0DF0000E126E000E116E134AFB
:101BB000142A14BEE5EF0DF0145009E13C0E135C3D
:101BC000D8A0E5EF0DF0E7EF0DF0EBEF0DF0000E14
:101BD000146E000E136E1200800E5BEC10F0120EED
:101BE000306E100E316EF6EC10F0C00E5BEC10F0A3
:101BF00005C029F006C02AF0000E2C6E0A0E2B6ECE
:101C000053EC0EF02950300F30EC10F005C029F0E5
:101C100006C02AF0000E2C6E0A0E2B6E16EC0FF08A
:101C20002950300F30EC10F03A0E30EC10F007C0B5
:101C300029F008C02AF0000E2C6E0A0E2B6E53EC11
:101C40000EF02950300F30EC10F007C029F008C01A
:101C50002AF0000E2C6E0A0E2B6E16EC0FF0295097
:101C6000300F30EC10F03A0E30EC10F009C029F0D3
:101C70000AC02AF0000E2C6E0A0E2B6E53EC0EF0EA
:101C80002950300F30EC10F009C029F00AC02AF0BA
:101C9000000E2C6E0A0E2B6E16EC0FF02950300F32
:101CA00030EC10F01200000E2E6E2CBE5CEF0EF029
:101CB0005AEF0EF062EF0EF02B6C2C1ED8B02C2ACF
:101CC000010E2E6E2ABE69EF0EF067EF0EF06FEF79
:101CD0000EF0296C2A1ED8B02A2A010E2E1A000EE8
:101CE000306E000E2F6E2B502C10D8B47AEF0EF001
:101CF0007CEF0EF0A4EF0EF0010E2D6E84EF0EF0CF
:101D0000D8902B362C362D2A2CAE89EF0EF08BEF87
:101D10000EF080EF0EF0D8902F3630362B50295C25
:101D20002C502A58D8A097EF0EF099EF0EF09EEFA6
:101D30000EF02B50295E2C502A5A2F80D8902C322E
:101D40002B322D2E8BEF0EF02E50D8B4AAEF0EF0C2
:101D5000ACEF0EF0B0EF0EF02F6C301ED8B0302A82
:101D60002FC029F030C02AF01200D2EC10F021C0B0
:101D700025F022C026F0AEEC10F021C027F022C0E2
:101D800028F025042610D8A4C8EF0EF0CAEF0EF0F4
:101D9000D0EF0EF0000E1A6E010E196E15EF0FF057
:101DA00027042810D8A4D7EF0EF0D9EF0EF003EFD8
:101DB0000FF01D4A1E2A1EBEE7EF0EF01E5009E16D
:101DC000640E1D5CD8A0E7EF0EF0E9EF0EF015EF02
:101DD0000FF01B4A1C2A1CBEF7EF0EF01C5009E145
:101DE000150E1B5CD8A0F7EF0EF0F9EF0EF015EF13
:101DF0000FF0000E186E010E176E000E1C6E000E16
:101E00001B6E15EF0FF0000E1E6E000E1D6E000E05
:101E10001C6E000E1B6E000E1A6E000E196E000E68
:101E2000186E000E176E15EF0FF01200000E2E6EDA
:101E30002ABE1FEF0FF01DEF0FF025EF0FF0296CFA
:101E40002A1ED8B02A2A010E2E6E2CBE2CEF0FF0BF
:101E50002AEF0FF030EF0FF02B6C2C1ED8B02C2A8D
:101E60002B502C10D8B437EF0FF039EF0FF05DEF97
:101E70000FF0010E2D6E41EF0FF0D8902B362C365F
:101E80002D2A2CAE46EF0FF048EF0FF03DEF0FF08C
:101E90002B50295C2C502A58D8A051EF0FF053EF4B
:101EA0000FF057EF0FF02B50295E2C502A5AD89084
:101EB0002C322B322D2E48EF0FF02E50D8B463EF7A
:101EC0000FF065EF0FF069EF0FF0296C2A1ED8B004
:101ED0002A2A29C029F02AC02AF012000EBE7AEF61
:101EE0000FF00E5009E1640E0D5CD8A07AEF0FF0F0
:101EF0007CEF0FF0BCEF0FF0000E0E6E000E0D6EBB
:101F0000094A0A2A0ABE8EEF0FF00A5009E13C0E78
:101F1000095CD8A08EEF0FF090EF0FF096EF0FF066
:101F2000000E0A6E000E096E074A082A08BEA2EFCC
:101F30000FF0085009E13C0E075CD8A0A2EF0FF0AB
:101F4000A4EF0FF0AAEF0FF0000E086E000E076E60
:101F5000054A062A06BEB6EF0FF0065009E1180E34
:101F6000055CD8A0B6EF0FF0B8EF0FF0BCEF0FF0A4
:101F7000000E066E000E056E12000600F2A4C3EFFE
:101F80000FF0C5EF0FF0F6EF0FF0F2AACAEF0FF067
:101F9000CCEF0FF0F6EF0FF0F294FD0ED76E5F0E60
:101FA000D66E0D4A0E2A15041610D8A4DAEF0FF0DB
:101FB000DCEF0FF0F4EF0FF00F4A102A10BEEAEF3B
:101FC0000FF0105009E1640E0F5CD8A0EAEF0FF09B
:101FD000ECEF0FF0F4EF0FF0000E106E000E0F6E2E
:101FE000000E0C6E010E0B6EB5EC0EF03A92110065
:101FF000296E29C02BF0000E2A6E29AE02EF10F0D8
:1020000004EF10F007EF10F08B8A08EF10F08B9AB6
:102010008BA80DEF10F00FEF10F013EF10F0D88039
:102020002B3616EF10F02B502B242B6E8B8600F0E6
:1020300000F000F000F000F000F000F000F000F020
:1020400000F000F000F08B96D89029362A2A070E6F
:102050002A642DEF10F02FEF10F0FDEF0FF01200BB
:102060002F6E800E2C6E120E3DEC11F0040E2E6EB3
:102070003E0EE82EFED72E2EFCD72FC02CF0130ECE
:102080003DEC11F0040E2E6E3E0EE82EFED72E2EE5
:10209000FCD7C00E2C6E120E3DEC11F0040E2E6E0D
:1020A0003E0EE82EFED72E2EFCD7000E2C6E120E02
:1020B0003DEC11F012002F6E000E2C6E120E3DEC56
:1020C00011F0040E2E6E3E0EE82EFED72E2EFCD7FB
:1020D0002FC02CF0130E3DEC11F0040E2E6E3E0EB0
:1020E000E82EFED72E2EFCD7400E2C6E120E3DECA5
:1020F00011F0040E2E6E3E0EE82EFED72E2EFCD7CB
:10210000000E2C6E120E3DEC11F0120054EC11F08A
:10211000979C8E9C8E8C000E30EC11F0010E30ECF2
:1021200011F0000E2C6E120E3DEC11F0310E306EDF
:10213000B20EE82EFED7302EFCD700D0320E5BEC6C
:1021400010F03C0E5BEC10F00C0E5BEC10F0010E8E
:102150005BEC10F0060E5BEC10F0120036C037F0AE
:10216000000E81B0010E366E000E246E000E236E3E
:1021700036503718D8A4BFEF10F0C1EF10F0CDEFF4
:1021800010F03750D8A4C7EF10F0C9EF10F0CDEF22
:1021900010F0000E246E010E236E23C021F024C027
:1021A00022F0120038C039F0000E80BA010E386EED
:1021B000000E246E000E236E38503918D8A4E3EFB9
:1021C00010F0E5EF10F0F1EF10F03950D8A4EBEF7C
:1021D00010F0EDEF10F0F1EF10F0000E246E010E94
:1021E000236E23C021F024C022F0120004EF11F06E
:1021F00030C0F6FF31C0F7FF000EF86E0800F55052
:1022000030EC10F0304A312A30C0F6FF31C0F7FF11
:10221000000EF86E0800F5500009D8A412EF11F076
:1022200014EF11F0F8EF10F01200CE0EF66E220E41
:10223000F76E000EF86E00EE36F010EE04F00900B6
:10224000F5CFEEFFE550E150FAE100EE01F0200E8F
:10225000EE6AE806FDE13A903A9200012AEF08F0B2
:102260002C6E8994400EF8EC0FF02C50F8EC0FF027
:10227000000EF8EC0FF0898412002D6E8994400E48
:10228000F8EC0FF02D50F8EC0FF02C50F8EC0FF0AC
:1022900089841200F28EF28AF294840ED56EFD0EBD
:1022A000D76E7F0ED66E120092949488949A94966C
:1022B00089848B888B9A8B961200770ED36E0F0EC3
:1022C0009B6E1200928A93800F0EC16E1200010164
:0222D00001010A
:020000040020DA
:08000000FFFFFFFFFFFFFFFF00
:020000040030CA
:0E000000FF06191EF38381FFFFC0FFE0FF40E3
:00000001FF
